{
    "abi": [
        {
            "inputs": [],
            "stateMutability": "nonpayable",
            "type": "constructor",
            "name": "constructor"
        },
        {
            "anonymous": false,
            "inputs": [
                {
                    "indexed": true,
                    "internalType": "address",
                    "name": "previousOwner",
                    "type": "address"
                },
                {
                    "indexed": true,
                    "internalType": "address",
                    "name": "newOwner",
                    "type": "address"
                }
            ],
            "name": "OwnershipTransferred",
            "type": "event"
        },
        {
            "anonymous": false,
            "inputs": [
                {
                    "indexed": false,
                    "internalType": "bytes32",
                    "name": "requestId",
                    "type": "bytes32"
                }
            ],
            "name": "RequestedRandomness",
            "type": "event"
        },
        {
            "anonymous": false,
            "inputs": [
                {
                    "indexed": true,
                    "internalType": "address",
                    "name": "to",
                    "type": "address"
                },
                {
                    "indexed": false,
                    "internalType": "uint256",
                    "name": "value",
                    "type": "uint256"
                }
            ],
            "name": "cantSendEthOwner",
            "type": "event"
        },
        {
            "anonymous": false,
            "inputs": [
                {
                    "indexed": true,
                    "internalType": "address",
                    "name": "to",
                    "type": "address"
                },
                {
                    "indexed": false,
                    "internalType": "uint256",
                    "name": "value",
                    "type": "uint256"
                }
            ],
            "name": "cantSendEthParticipants",
            "type": "event"
        },
        {
            "anonymous": false,
            "inputs": [
                {
                    "indexed": true,
                    "internalType": "address",
                    "name": "to",
                    "type": "address"
                },
                {
                    "indexed": false,
                    "internalType": "uint256",
                    "name": "value",
                    "type": "uint256"
                }
            ],
            "name": "cantSendEthWinner",
            "type": "event"
        },
        {
            "inputs": [],
            "name": "EntryFee",
            "outputs": [
                {
                    "internalType": "uint256",
                    "name": "",
                    "type": "uint256"
                }
            ],
            "stateMutability": "view",
            "type": "function"
        },
        {
            "inputs": [],
            "name": "contractPercent",
            "outputs": [
                {
                    "internalType": "uint256",
                    "name": "",
                    "type": "uint256"
                }
            ],
            "stateMutability": "view",
            "type": "function"
        },
        {
            "inputs": [],
            "name": "emergency",
            "outputs": [
                {
                    "internalType": "enum MyLottery.EMERGENCY",
                    "name": "",
                    "type": "uint8"
                }
            ],
            "stateMutability": "view",
            "type": "function"
        },
        {
            "inputs": [],
            "name": "end_lottery",
            "outputs": [],
            "stateMutability": "nonpayable",
            "type": "function"
        },
        {
            "inputs": [],
            "name": "enter_lottery",
            "outputs": [],
            "stateMutability": "payable",
            "type": "function"
        },
        {
            "inputs": [],
            "name": "errorFlag",
            "outputs": [
                {
                    "internalType": "uint256",
                    "name": "",
                    "type": "uint256"
                }
            ],
            "stateMutability": "view",
            "type": "function"
        },
        {
            "inputs": [],
            "name": "fee",
            "outputs": [
                {
                    "internalType": "uint256",
                    "name": "",
                    "type": "uint256"
                }
            ],
            "stateMutability": "view",
            "type": "function"
        },
        {
            "inputs": [
                {
                    "internalType": "address",
                    "name": "_tokenContractAddress",
                    "type": "address"
                }
            ],
            "name": "getBalance",
            "outputs": [
                {
                    "internalType": "uint256",
                    "name": "",
                    "type": "uint256"
                }
            ],
            "stateMutability": "view",
            "type": "function"
        },
        {
            "inputs": [
                {
                    "internalType": "address",
                    "name": "",
                    "type": "address"
                }
            ],
            "name": "isUserEntered",
            "outputs": [
                {
                    "internalType": "bool",
                    "name": "",
                    "type": "bool"
                }
            ],
            "stateMutability": "view",
            "type": "function"
        },
        {
            "inputs": [],
            "name": "keyhash",
            "outputs": [
                {
                    "internalType": "bytes32",
                    "name": "",
                    "type": "bytes32"
                }
            ],
            "stateMutability": "view",
            "type": "function"
        },
        {
            "inputs": [],
            "name": "lotteryDuration",
            "outputs": [
                {
                    "internalType": "uint256",
                    "name": "",
                    "type": "uint256"
                }
            ],
            "stateMutability": "view",
            "type": "function"
        },
        {
            "inputs": [],
            "name": "lotteryEnd",
            "outputs": [
                {
                    "internalType": "uint256",
                    "name": "",
                    "type": "uint256"
                }
            ],
            "stateMutability": "view",
            "type": "function"
        },
        {
            "inputs": [],
            "name": "lotteryPrepDuration",
            "outputs": [
                {
                    "internalType": "uint256",
                    "name": "",
                    "type": "uint256"
                }
            ],
            "stateMutability": "view",
            "type": "function"
        },
        {
            "inputs": [],
            "name": "lotteryStart",
            "outputs": [
                {
                    "internalType": "uint256",
                    "name": "",
                    "type": "uint256"
                }
            ],
            "stateMutability": "view",
            "type": "function"
        },
        {
            "inputs": [],
            "name": "lottery_state",
            "outputs": [
                {
                    "internalType": "enum MyLottery.LOTTERY_STATE",
                    "name": "",
                    "type": "uint8"
                }
            ],
            "stateMutability": "view",
            "type": "function"
        },
        {
            "inputs": [],
            "name": "maxTryCounter",
            "outputs": [
                {
                    "internalType": "uint256",
                    "name": "",
                    "type": "uint256"
                }
            ],
            "stateMutability": "view",
            "type": "function"
        },
        {
            "inputs": [],
            "name": "maximumParticipants",
            "outputs": [
                {
                    "internalType": "uint256",
                    "name": "",
                    "type": "uint256"
                }
            ],
            "stateMutability": "view",
            "type": "function"
        },
        {
            "inputs": [],
            "name": "minumumParticipants",
            "outputs": [
                {
                    "internalType": "uint256",
                    "name": "",
                    "type": "uint256"
                }
            ],
            "stateMutability": "view",
            "type": "function"
        },
        {
            "inputs": [],
            "name": "owner",
            "outputs": [
                {
                    "internalType": "address",
                    "name": "",
                    "type": "address"
                }
            ],
            "stateMutability": "view",
            "type": "function"
        },
        {
            "inputs": [],
            "name": "ownerPercent",
            "outputs": [
                {
                    "internalType": "uint256",
                    "name": "",
                    "type": "uint256"
                }
            ],
            "stateMutability": "view",
            "type": "function"
        },
        {
            "inputs": [],
            "name": "ownerSent",
            "outputs": [
                {
                    "internalType": "bool",
                    "name": "",
                    "type": "bool"
                }
            ],
            "stateMutability": "view",
            "type": "function"
        },
        {
            "inputs": [
                {
                    "internalType": "uint256",
                    "name": "",
                    "type": "uint256"
                }
            ],
            "name": "players",
            "outputs": [
                {
                    "internalType": "address payable",
                    "name": "",
                    "type": "address"
                }
            ],
            "stateMutability": "view",
            "type": "function"
        },
        {
            "inputs": [],
            "name": "pricePercent",
            "outputs": [
                {
                    "internalType": "uint256",
                    "name": "",
                    "type": "uint256"
                }
            ],
            "stateMutability": "view",
            "type": "function"
        },
        {
            "inputs": [],
            "name": "randomness",
            "outputs": [
                {
                    "internalType": "uint256",
                    "name": "",
                    "type": "uint256"
                }
            ],
            "stateMutability": "view",
            "type": "function"
        },
        {
            "inputs": [],
            "name": "recentWinner",
            "outputs": [
                {
                    "internalType": "address payable",
                    "name": "",
                    "type": "address"
                }
            ],
            "stateMutability": "view",
            "type": "function"
        },
        {
            "inputs": [],
            "name": "recoverEth",
            "outputs": [],
            "stateMutability": "nonpayable",
            "type": "function"
        },
        {
            "inputs": [
                {
                    "internalType": "address",
                    "name": "tokenAddress",
                    "type": "address"
                }
            ],
            "name": "recoverTokens",
            "outputs": [],
            "stateMutability": "nonpayable",
            "type": "function"
        },
        {
            "inputs": [],
            "name": "renounceOwnership",
            "outputs": [],
            "stateMutability": "nonpayable",
            "type": "function"
        },
        {
            "inputs": [],
            "name": "retrySendPrizes",
            "outputs": [],
            "stateMutability": "nonpayable",
            "type": "function"
        },
        {
            "inputs": [],
            "name": "setEmergencyClose",
            "outputs": [],
            "stateMutability": "nonpayable",
            "type": "function"
        },
        {
            "inputs": [],
            "name": "setEmergencyOpen",
            "outputs": [],
            "stateMutability": "nonpayable",
            "type": "function"
        },
        {
            "inputs": [
                {
                    "internalType": "uint256",
                    "name": "_entryFee",
                    "type": "uint256"
                }
            ],
            "name": "setEntranceFee",
            "outputs": [],
            "stateMutability": "nonpayable",
            "type": "function"
        },
        {
            "inputs": [
                {
                    "internalType": "uint256",
                    "name": "_duration",
                    "type": "uint256"
                }
            ],
            "name": "setLotteryDuration",
            "outputs": [],
            "stateMutability": "nonpayable",
            "type": "function"
        },
        {
            "inputs": [
                {
                    "internalType": "uint256",
                    "name": "_maximumParticipants",
                    "type": "uint256"
                }
            ],
            "name": "setMaximumParticipants",
            "outputs": [],
            "stateMutability": "nonpayable",
            "type": "function"
        },
        {
            "inputs": [
                {
                    "internalType": "uint256",
                    "name": "_minumumParticipants",
                    "type": "uint256"
                }
            ],
            "name": "setMinumumParticipants",
            "outputs": [],
            "stateMutability": "nonpayable",
            "type": "function"
        },
        {
            "inputs": [
                {
                    "internalType": "uint256",
                    "name": "_pricePercent",
                    "type": "uint256"
                },
                {
                    "internalType": "uint256",
                    "name": "_ownerPercent",
                    "type": "uint256"
                },
                {
                    "internalType": "uint256",
                    "name": "_contractPercent",
                    "type": "uint256"
                }
            ],
            "name": "setPrizePercents",
            "outputs": [],
            "stateMutability": "nonpayable",
            "type": "function"
        },
        {
            "inputs": [],
            "name": "start_lottery",
            "outputs": [],
            "stateMutability": "nonpayable",
            "type": "function"
        },
        {
            "inputs": [
                {
                    "internalType": "address",
                    "name": "newOwner",
                    "type": "address"
                }
            ],
            "name": "transferOwner",
            "outputs": [],
            "stateMutability": "nonpayable",
            "type": "function"
        },
        {
            "inputs": [
                {
                    "internalType": "address",
                    "name": "newOwner",
                    "type": "address"
                }
            ],
            "name": "transferOwnership",
            "outputs": [],
            "stateMutability": "nonpayable",
            "type": "function"
        }
    ],
    "bytecode": "608060405234801561001057600080fd5b5061001a33610069565b6001805566b1a2bc2ec500006007556012805462ffff00191662010100179055600a60058190556096600655604660095560148155600b556003600c556203f4806010556138406011556100b9565b600080546001600160a01b038381166001600160a01b0319831681178455604051919092169283917f8be0079c531659141344cd1fd0a4f28419497f9722a3daafe3b4186f6b6457e09190a35050565b611bcc806100c86000396000f3fe6080604052600436106102305760003560e01c80638da5cb5b1161012e578063d70fa7de116100ab578063f2fde38b1161006f578063f2fde38b146105e2578063f71d96cb14610602578063f8b2cb4f14610622578063faea18c614610642578063fe56f5a01461065857600080fd5b8063d70fa7de1461056c578063d718aea914610582578063ddca3f4314610597578063ee44abb2146105ad578063f2640e10146105c257600080fd5b8063bcdb446b116100f2578063bcdb446b146104ce578063be55c9c9146104e3578063caa6fea414610513578063cd8cc84414610540578063cf23aa381461055657600080fd5b80638da5cb5b1461044e57806395d120001461046c5780639bb5771814610482578063a6d811ea14610498578063b4989917146104ae57600080fd5b80634f8c70cf116101bc5780636531e5c4116101805780636531e5c4146103cc57806369ebe78e146103e1578063715018a6146103f7578063814479991461040c57806381fb84fb1461043857600080fd5b80634f8c70cf146103285780634fb2e45d14610360578063501d078014610380578063569237101461039657806359fe8c84146103b657600080fd5b80632b58150b116102035780632b58150b146102bf5780632d97902f146102df57806336013189146102f5578063382e5e7a1461030b5780634a8466e91461031357600080fd5b806304283412146102355780630b3ff2801461025e57806316114acd146102885780631b30d5df146102aa575b600080fd5b34801561024157600080fd5b5061024b60065481565b6040519081526020015b60405180910390f35b34801561026a57600080fd5b506012546102789060ff1681565b6040519015158152602001610255565b34801561029457600080fd5b506102a86102a336600461186d565b610678565b005b3480156102b657600080fd5b506102a8610768565b3480156102cb57600080fd5b506102a86102da366004611896565b61078b565b3480156102eb57600080fd5b5061024b60105481565b34801561030157600080fd5b5061024b60045481565b6102a8610798565b34801561031f57600080fd5b506102a8610a0b565b34801561033457600080fd5b50600354610348906001600160a01b031681565b6040516001600160a01b039091168152602001610255565b34801561036c57600080fd5b506102a861037b36600461186d565b610a1e565b34801561038c57600080fd5b5061024b600c5481565b3480156103a257600080fd5b506102a86103b1366004611896565b610a2f565b3480156103c257600080fd5b5061024b60075481565b3480156103d857600080fd5b506102a8610a3c565b3480156103ed57600080fd5b5061024b60145481565b34801561040357600080fd5b506102a8610a5c565b34801561041857600080fd5b5060125461042b90610100900460ff1681565b60405161025591906118c5565b34801561044457600080fd5b5061024b60095481565b34801561045a57600080fd5b506000546001600160a01b0316610348565b34801561047857600080fd5b5061024b600a5481565b34801561048e57600080fd5b5061024b600b5481565b3480156104a457600080fd5b5061024b60055481565b3480156104ba57600080fd5b506102a86104c9366004611896565b610a70565b3480156104da57600080fd5b506102a8610a7d565b3480156104ef57600080fd5b506102786104fe36600461186d565b60086020526000908152604090205460ff1681565b34801561051f57600080fd5b506012546105339062010000900460ff1681565b60405161025591906118df565b34801561054c57600080fd5b5061024b600e5481565b34801561056257600080fd5b5061024b60115481565b34801561057857600080fd5b5061024b600f5481565b34801561058e57600080fd5b506102a8610aec565b3480156105a357600080fd5b5061024b60135481565b3480156105b957600080fd5b506102a8610c8b565b3480156105ce57600080fd5b506102a86105dd3660046118f3565b610ddd565b3480156105ee57600080fd5b506102a86105fd36600461186d565b610ec8565b34801561060e57600080fd5b5061034861061d366004611896565b610f3e565b34801561062e57600080fd5b5061024b61063d36600461186d565b610f68565b34801561064e57600080fd5b5061024b600d5481565b34801561066457600080fd5b506102a8610673366004611896565b610fdc565b610680611024565b6040516370a0823160e01b815230600482015281906001600160a01b0382169063a9059cbb90339083906370a0823190602401602060405180830381865afa1580156106d0573d6000803e3d6000fd5b505050506040513d601f19601f820116820180604052508101906106f4919061191f565b6040516001600160e01b031960e085901b1681526001600160a01b03909216600483015260248201526044016020604051808303816000875af115801561073f573d6000803e3d6000fd5b505050506040513d601f19601f820116820180604052508101906107639190611938565b505050565b610770611024565b601280546000919062ff0000191662010000835b0217905550565b610793611024565b601055565b6002600154036107c35760405162461bcd60e51b81526004016107ba9061195a565b60405180910390fd5b60026001553360009081526008602052604090205460ff161561081a5760405162461bcd60e51b815260206004820152600f60248201526e105b1c9958591e48195b9d195c9959608a1b60448201526064016107ba565b336000908152600860205260408120805460ff19166001179055601254610100900460ff166002811115610850576108506118af565b146108935760405162461bcd60e51b8152602060048201526013602482015272131bdd1d195c9e48139bdd081cdd185c9d1959606a1b60448201526064016107ba565b600160125462010000900460ff1660018111156108b2576108b26118af565b146108cf5760405162461bcd60e51b81526004016107ba90611991565b60075434146108df60075461107e565b6040516020016108ef91906119de565b6040516020818303038152906040529061091c5760405162461bcd60e51b81526004016107ba9190611a31565b50600654600254111561097d5760405162461bcd60e51b815260206004820152602360248201527f4d6178696d756d204e756d626572207265616368656420666f7220206c6f747460448201526265727960e81b60648201526084016107ba565b333b156109c45760405162461bcd60e51b815260206004820152601560248201527421b7b73a3930b1ba1031b0b73737ba1032b73a32b960591b60448201526064016107ba565b60028054600181810183556000929092527f405787fa12a823e0f2b7631cc41b3ba8828b3321ca811111fa75cd3aa3bb5ace0180546001600160a01b031916331790558055565b610a13611024565b610a1b611187565b50565b610a26611024565b610a1b81610ec8565b610a37611024565b600655565b610a44611024565b601280546001919062ff000019166201000083610784565b610a64611024565b610a6e60006113c9565b565b610a78611024565b600555565b610a85611024565b6001601254610100900460ff166002811115610aa357610aa36118af565b14610ac05760405162461bcd60e51b81526004016107ba90611a64565b60405133904780156108fc02916000818181858888f19350505050158015610a1b573d6000803e3d6000fd5b600260015403610b0e5760405162461bcd60e51b81526004016107ba9061195a565b60026001556000601254610100900460ff166002811115610b3157610b316118af565b14610b745760405162461bcd60e51b8152602060048201526013602482015272131bdd1d195c9e48139bdd081cdd185c9d1959606a1b60448201526064016107ba565b600160125462010000900460ff166001811115610b9357610b936118af565b14610bb05760405162461bcd60e51b81526004016107ba90611991565b601054600e54610bc09190611ab1565b4211610c0e5760405162461bcd60e51b815260206004820152601f60248201527f6d696e206c6f7474657279206475726174696f6e206e6f74207061737365640060448201526064016107ba565b333b15610c555760405162461bcd60e51b815260206004820152601560248201527421b7b73a3930b1ba1031b0b73737ba1032b73a32b960591b60448201526064016107ba565b6005546002541015610c6e57610c69611419565b610c85565b6012805461ff001916610200179055610c8561157a565b60018055565b600260015403610cad5760405162461bcd60e51b81526004016107ba9061195a565b60026001908155601254610100900460ff166002811115610cd057610cd06118af565b14610d1d5760405162461bcd60e51b815260206004820152601760248201527f4c6f747465727920416c7265616479207374617274656400000000000000000060448201526064016107ba565b600160125462010000900460ff166001811115610d3c57610d3c6118af565b14610d595760405162461bcd60e51b81526004016107ba90611991565b601154600f54610d699190611ab1565b4211610dc35760405162461bcd60e51b8152602060048201526024808201527f6d696e206c6f74746572792070726570206475726174696f6e206e6f742070616044820152631cdcd95960e21b60648201526084016107ba565b6012805461ff0019169055600060045542600e5560018055565b610de5611024565b6001601254610100900460ff166002811115610e0357610e036118af565b14610e205760405162461bcd60e51b81526004016107ba90611a64565b606481610e2d8486611ab1565b610e379190611ab1565b1115610e785760405162461bcd60e51b815260206004820152601060248201526f063616e206e6f74206f766572203130360841b60448201526064016107ba565b60328310610eba5760405162461bcd60e51b815260206004820152600f60248201526e063616e206e6f74206c65737320353608c1b60448201526064016107ba565b600992909255600a55600b55565b610ed0611024565b6001600160a01b038116610f355760405162461bcd60e51b815260206004820152602660248201527f4f776e61626c653a206e6577206f776e657220697320746865207a65726f206160448201526564647265737360d01b60648201526084016107ba565b610a1b816113c9565b60028181548110610f4e57600080fd5b6000918252602090912001546001600160a01b0316905081565b6040516370a0823160e01b815230600482015260009081906001600160a01b038416906370a0823190602401602060405180830381865afa158015610fb1573d6000803e3d6000fd5b505050506040513d601f19601f82011682018060405250810190610fd5919061191f565b9392505050565b610fe4611024565b6001601254610100900460ff166002811115611002576110026118af565b1461101f5760405162461bcd60e51b81526004016107ba90611a64565b600755565b6000546001600160a01b03163314610a6e5760405162461bcd60e51b815260206004820181905260248201527f4f776e61626c653a2063616c6c6572206973206e6f7420746865206f776e657260448201526064016107ba565b6060816000036110a55750506040805180820190915260018152600360fc1b602082015290565b8160005b81156110cf57806110b981611aca565b91506110c89050600a83611af9565b91506110a9565b60008167ffffffffffffffff8111156110ea576110ea611b0d565b6040519080825280601f01601f191660200182016040528015611114576020820181803683370190505b5090505b841561117f57611129600183611b23565b9150611136600a86611b36565b611141906030611ab1565b60f81b81838151811061115657611156611b4a565b60200101906001600160f81b031916908160001a905350611178600a86611af9565b9450611118565b949350505050565b60006002601254610100900460ff1660028111156111a7576111a76118af565b146111f45760405162461bcd60e51b815260206004820152601760248201527f2073656e64207072697a652077726f6e6720737461746500000000000000000060448201526064016107ba565b601254479060ff16611305576000806112156000546001600160a01b031690565b6001600160a01b03166064600a548561122e9190611b60565b6112389190611af9565b604051600081818185875af1925050503d8060008114611274576040519150601f19603f3d011682016040523d82523d6000602084013e611279565b606091505b506012805460ff1916831515908117909155919350915060ff16611302576000546001600160a01b03166001600160a01b03167f7a4c4fdf5d3172470d96d64c965b30de694852175efc7a6b546fb3bdbf76d1786064600a54866112dd9190611b60565b6112e79190611af9565b60405190815260200160405180910390a26001935050505090565b50505b60035460095460009182916001600160a01b03909116906064906113299086611b60565b6113339190611af9565b604051600081818185875af1925050503d806000811461136f576040519150601f19603f3d011682016040523d82523d6000602084013e611374565b606091505b5091509150816113bf576003546009546001600160a01b03909116907f977e2c32be07c8aa27bfe58f2bf200e11eca859b94d36e76e645fcaf1d4cc946906064906112dd9087611b60565b6000935050505090565b600080546001600160a01b038381166001600160a01b0319831681178455604051919092169283917f8be0079c531659141344cd1fd0a4f28419497f9722a3daafe3b4186f6b6457e09190a35050565b60005b60025460ff821610156115715760008060028360ff168154811061144257611442611b4a565b60009182526020822001546007546040516001600160a01b039092169290919081818185875af1925050503d8060008114611499576040519150601f19603f3d011682016040523d82523d6000602084013e61149e565b606091505b509150915060006008600060028660ff16815481106114bf576114bf611b4a565b6000918252602080832091909101546001600160a01b031683528201929092526040019020805460ff19169115159190911790558161155c5760028360ff168154811061150e5761150e611b4a565b600091825260209182902001546007546040519081526001600160a01b03909116917f1198b3902400a4722f08a21eb834e8f872109a5dab83213639d3670a10d8d40a910160405180910390a25b5050808061156990611b77565b91505061141c565b50610a6e611666565b600260008154811061158e5761158e611b4a565b600091825260209091200154600280546001600160a01b039092169160019081106115bb576115bb611b4a565b600091825260209091200154600280546001600160a01b03909216916115e390600190611b23565b815481106115f3576115f3611b4a565b600091825260209182902001546040516bffffffffffffffffffffffff19606095861b81169382019390935292841b8216603484015290921b909116604882015244605c82015242607c820152609c0160408051601f198184030181529190528051602090910120600455610a6e611711565b60005b60025460ff821610156116d85760006008600060028460ff168154811061169257611692611b4a565b6000918252602080832091909101546001600160a01b031683528201929092526040019020805460ff1916911515919091179055806116d081611b77565b915050611669565b5060408051600081526020810191829052516116f6916002916117f3565b50601280546000600d5561ffff191661010017905542600f55565b600060045460000361175c5760405162461bcd60e51b815260206004820152601460248201527363616e742066696e642072616e646f6d6e65737360601b60448201526064016107ba565b60025460045460009161176e91611b36565b90506002818154811061178357611783611b4a565b600091825260209091200154600380546001600160a01b0319166001600160a01b039092169190911790556117b6611187565b9150816000036117cc576117c8611666565b5050565b600d546117da906001611ab1565b600d8190556003036117c8576000600d556117c861157a565b828054828255906000526020600020908101928215611848579160200282015b8281111561184857825182546001600160a01b0319166001600160a01b03909116178255602090920191600190910190611813565b50611854929150611858565b5090565b5b808211156118545760008155600101611859565b60006020828403121561187f57600080fd5b81356001600160a01b0381168114610fd557600080fd5b6000602082840312156118a857600080fd5b5035919050565b634e487b7160e01b600052602160045260246000fd5b60208101600383106118d9576118d96118af565b91905290565b60208101600283106118d9576118d96118af565b60008060006060848603121561190857600080fd5b505081359360208301359350604090920135919050565b60006020828403121561193157600080fd5b5051919050565b60006020828403121561194a57600080fd5b81518015158114610fd557600080fd5b6020808252601f908201527f5265656e7472616e637947756172643a207265656e7472616e742063616c6c00604082015260600190565b6020808252600f908201526e131bdd1d195c9e4814dd1bdc1c1959608a1b604082015260600190565b60005b838110156119d55781810151838201526020016119bd565b50506000910152565b7f456e74727920666565206d75737420626520657175616c20746f3a2000000000815260008251611a1681601c8501602087016119ba565b630408ae8d60e31b601c939091019283015250602001919050565b6020815260008251806020840152611a508160408501602087016119ba565b601f01601f19169190910160400192915050565b6020808252601d908201527f43616e204e6f74207768696c65206c6f7474657279206f6e676f696e67000000604082015260600190565b634e487b7160e01b600052601160045260246000fd5b80820180821115611ac457611ac4611a9b565b92915050565b600060018201611adc57611adc611a9b565b5060010190565b634e487b7160e01b600052601260045260246000fd5b600082611b0857611b08611ae3565b500490565b634e487b7160e01b600052604160045260246000fd5b81810381811115611ac457611ac4611a9b565b600082611b4557611b45611ae3565b500690565b634e487b7160e01b600052603260045260246000fd5b8082028115828204841417611ac457611ac4611a9b565b600060ff821660ff8103611b8d57611b8d611a9b565b6001019291505056fea2646970667358221220352a7081b20503a3bfedab958d060d94b2ec80a494b99366971e5a635420780d64736f6c63430008110033",
    "bytecodeSha1": "9f8a8714fca67679f4ee4a5e2fb145864e8ac3e0",
    "compiler": {
        "evm_version": "istanbul",
        "optimizer": {
            "enabled": true,
            "runs": 200
        },
        "version": "0.8.17+commit.8df45f5f"
    },
    "contractName": "MyLottery",
    "language": "Solidity",
    "natspec": {
        "kind": "dev",
        "methods": {
            "owner()": {
                "details": "Returns the address of the current owner."
            },
            "renounceOwnership()": {
                "details": "Leaves the contract without owner. It will not be possible to call `onlyOwner` functions anymore. Can only be called by the current owner. NOTE: Renouncing ownership will leave the contract without an owner, thereby removing any functionality that is only available to the owner."
            },
            "transferOwnership(address)": {
                "details": "Transfers ownership of the contract to a new account (`newOwner`). Can only be called by the current owner."
            }
        },
        "version": 1
    },
    "opcodes": "PUSH1 0x80 PUSH1 0x40 MSTORE PUSH1 0x4 CALLDATASIZE LT PUSH2 0x230 JUMPI PUSH1 0x0 CALLDATALOAD PUSH1 0xE0 SHR DUP1 PUSH4 0x8DA5CB5B GT PUSH2 0x12E JUMPI DUP1 PUSH4 0xD70FA7DE GT PUSH2 0xAB JUMPI DUP1 PUSH4 0xF2FDE38B GT PUSH2 0x6F JUMPI DUP1 PUSH4 0xF2FDE38B EQ PUSH2 0x5E2 JUMPI DUP1 PUSH4 0xF71D96CB EQ PUSH2 0x602 JUMPI DUP1 PUSH4 0xF8B2CB4F EQ PUSH2 0x622 JUMPI DUP1 PUSH4 0xFAEA18C6 EQ PUSH2 0x642 JUMPI DUP1 PUSH4 0xFE56F5A0 EQ PUSH2 0x658 JUMPI PUSH1 0x0 DUP1 REVERT JUMPDEST DUP1 PUSH4 0xD70FA7DE EQ PUSH2 0x56C JUMPI DUP1 PUSH4 0xD718AEA9 EQ PUSH2 0x582 JUMPI DUP1 PUSH4 0xDDCA3F43 EQ PUSH2 0x597 JUMPI DUP1 PUSH4 0xEE44ABB2 EQ PUSH2 0x5AD JUMPI DUP1 PUSH4 0xF2640E10 EQ PUSH2 0x5C2 JUMPI PUSH1 0x0 DUP1 REVERT JUMPDEST DUP1 PUSH4 0xBCDB446B GT PUSH2 0xF2 JUMPI DUP1 PUSH4 0xBCDB446B EQ PUSH2 0x4CE JUMPI DUP1 PUSH4 0xBE55C9C9 EQ PUSH2 0x4E3 JUMPI DUP1 PUSH4 0xCAA6FEA4 EQ PUSH2 0x513 JUMPI DUP1 PUSH4 0xCD8CC844 EQ PUSH2 0x540 JUMPI DUP1 PUSH4 0xCF23AA38 EQ PUSH2 0x556 JUMPI PUSH1 0x0 DUP1 REVERT JUMPDEST DUP1 PUSH4 0x8DA5CB5B EQ PUSH2 0x44E JUMPI DUP1 PUSH4 0x95D12000 EQ PUSH2 0x46C JUMPI DUP1 PUSH4 0x9BB57718 EQ PUSH2 0x482 JUMPI DUP1 PUSH4 0xA6D811EA EQ PUSH2 0x498 JUMPI DUP1 PUSH4 0xB4989917 EQ PUSH2 0x4AE JUMPI PUSH1 0x0 DUP1 REVERT JUMPDEST DUP1 PUSH4 0x4F8C70CF GT PUSH2 0x1BC JUMPI DUP1 PUSH4 0x6531E5C4 GT PUSH2 0x180 JUMPI DUP1 PUSH4 0x6531E5C4 EQ PUSH2 0x3CC JUMPI DUP1 PUSH4 0x69EBE78E EQ PUSH2 0x3E1 JUMPI DUP1 PUSH4 0x715018A6 EQ PUSH2 0x3F7 JUMPI DUP1 PUSH4 0x81447999 EQ PUSH2 0x40C JUMPI DUP1 PUSH4 0x81FB84FB EQ PUSH2 0x438 JUMPI PUSH1 0x0 DUP1 REVERT JUMPDEST DUP1 PUSH4 0x4F8C70CF EQ PUSH2 0x328 JUMPI DUP1 PUSH4 0x4FB2E45D EQ PUSH2 0x360 JUMPI DUP1 PUSH4 0x501D0780 EQ PUSH2 0x380 JUMPI DUP1 PUSH4 0x56923710 EQ PUSH2 0x396 JUMPI DUP1 PUSH4 0x59FE8C84 EQ PUSH2 0x3B6 JUMPI PUSH1 0x0 DUP1 REVERT JUMPDEST DUP1 PUSH4 0x2B58150B GT PUSH2 0x203 JUMPI DUP1 PUSH4 0x2B58150B EQ PUSH2 0x2BF JUMPI DUP1 PUSH4 0x2D97902F EQ PUSH2 0x2DF JUMPI DUP1 PUSH4 0x36013189 EQ PUSH2 0x2F5 JUMPI DUP1 PUSH4 0x382E5E7A EQ PUSH2 0x30B JUMPI DUP1 PUSH4 0x4A8466E9 EQ PUSH2 0x313 JUMPI PUSH1 0x0 DUP1 REVERT JUMPDEST DUP1 PUSH4 0x4283412 EQ PUSH2 0x235 JUMPI DUP1 PUSH4 0xB3FF280 EQ PUSH2 0x25E JUMPI DUP1 PUSH4 0x16114ACD EQ PUSH2 0x288 JUMPI DUP1 PUSH4 0x1B30D5DF EQ PUSH2 0x2AA JUMPI JUMPDEST PUSH1 0x0 DUP1 REVERT JUMPDEST CALLVALUE DUP1 ISZERO PUSH2 0x241 JUMPI PUSH1 0x0 DUP1 REVERT JUMPDEST POP PUSH2 0x24B PUSH1 0x6 SLOAD DUP2 JUMP JUMPDEST PUSH1 0x40 MLOAD SWAP1 DUP2 MSTORE PUSH1 0x20 ADD JUMPDEST PUSH1 0x40 MLOAD DUP1 SWAP2 SUB SWAP1 RETURN JUMPDEST CALLVALUE DUP1 ISZERO PUSH2 0x26A JUMPI PUSH1 0x0 DUP1 REVERT JUMPDEST POP PUSH1 0x12 SLOAD PUSH2 0x278 SWAP1 PUSH1 0xFF AND DUP2 JUMP JUMPDEST PUSH1 0x40 MLOAD SWAP1 ISZERO ISZERO DUP2 MSTORE PUSH1 0x20 ADD PUSH2 0x255 JUMP JUMPDEST CALLVALUE DUP1 ISZERO PUSH2 0x294 JUMPI PUSH1 0x0 DUP1 REVERT JUMPDEST POP PUSH2 0x2A8 PUSH2 0x2A3 CALLDATASIZE PUSH1 0x4 PUSH2 0x186D JUMP JUMPDEST PUSH2 0x678 JUMP JUMPDEST STOP JUMPDEST CALLVALUE DUP1 ISZERO PUSH2 0x2B6 JUMPI PUSH1 0x0 DUP1 REVERT JUMPDEST POP PUSH2 0x2A8 PUSH2 0x768 JUMP JUMPDEST CALLVALUE DUP1 ISZERO PUSH2 0x2CB JUMPI PUSH1 0x0 DUP1 REVERT JUMPDEST POP PUSH2 0x2A8 PUSH2 0x2DA CALLDATASIZE PUSH1 0x4 PUSH2 0x1896 JUMP JUMPDEST PUSH2 0x78B JUMP JUMPDEST CALLVALUE DUP1 ISZERO PUSH2 0x2EB JUMPI PUSH1 0x0 DUP1 REVERT JUMPDEST POP PUSH2 0x24B PUSH1 0x10 SLOAD DUP2 JUMP JUMPDEST CALLVALUE DUP1 ISZERO PUSH2 0x301 JUMPI PUSH1 0x0 DUP1 REVERT JUMPDEST POP PUSH2 0x24B PUSH1 0x4 SLOAD DUP2 JUMP JUMPDEST PUSH2 0x2A8 PUSH2 0x798 JUMP JUMPDEST CALLVALUE DUP1 ISZERO PUSH2 0x31F JUMPI PUSH1 0x0 DUP1 REVERT JUMPDEST POP PUSH2 0x2A8 PUSH2 0xA0B JUMP JUMPDEST CALLVALUE DUP1 ISZERO PUSH2 0x334 JUMPI PUSH1 0x0 DUP1 REVERT JUMPDEST POP PUSH1 0x3 SLOAD PUSH2 0x348 SWAP1 PUSH1 0x1 PUSH1 0x1 PUSH1 0xA0 SHL SUB AND DUP2 JUMP JUMPDEST PUSH1 0x40 MLOAD PUSH1 0x1 PUSH1 0x1 PUSH1 0xA0 SHL SUB SWAP1 SWAP2 AND DUP2 MSTORE PUSH1 0x20 ADD PUSH2 0x255 JUMP JUMPDEST CALLVALUE DUP1 ISZERO PUSH2 0x36C JUMPI PUSH1 0x0 DUP1 REVERT JUMPDEST POP PUSH2 0x2A8 PUSH2 0x37B CALLDATASIZE PUSH1 0x4 PUSH2 0x186D JUMP JUMPDEST PUSH2 0xA1E JUMP JUMPDEST CALLVALUE DUP1 ISZERO PUSH2 0x38C JUMPI PUSH1 0x0 DUP1 REVERT JUMPDEST POP PUSH2 0x24B PUSH1 0xC SLOAD DUP2 JUMP JUMPDEST CALLVALUE DUP1 ISZERO PUSH2 0x3A2 JUMPI PUSH1 0x0 DUP1 REVERT JUMPDEST POP PUSH2 0x2A8 PUSH2 0x3B1 CALLDATASIZE PUSH1 0x4 PUSH2 0x1896 JUMP JUMPDEST PUSH2 0xA2F JUMP JUMPDEST CALLVALUE DUP1 ISZERO PUSH2 0x3C2 JUMPI PUSH1 0x0 DUP1 REVERT JUMPDEST POP PUSH2 0x24B PUSH1 0x7 SLOAD DUP2 JUMP JUMPDEST CALLVALUE DUP1 ISZERO PUSH2 0x3D8 JUMPI PUSH1 0x0 DUP1 REVERT JUMPDEST POP PUSH2 0x2A8 PUSH2 0xA3C JUMP JUMPDEST CALLVALUE DUP1 ISZERO PUSH2 0x3ED JUMPI PUSH1 0x0 DUP1 REVERT JUMPDEST POP PUSH2 0x24B PUSH1 0x14 SLOAD DUP2 JUMP JUMPDEST CALLVALUE DUP1 ISZERO PUSH2 0x403 JUMPI PUSH1 0x0 DUP1 REVERT JUMPDEST POP PUSH2 0x2A8 PUSH2 0xA5C JUMP JUMPDEST CALLVALUE DUP1 ISZERO PUSH2 0x418 JUMPI PUSH1 0x0 DUP1 REVERT JUMPDEST POP PUSH1 0x12 SLOAD PUSH2 0x42B SWAP1 PUSH2 0x100 SWAP1 DIV PUSH1 0xFF AND DUP2 JUMP JUMPDEST PUSH1 0x40 MLOAD PUSH2 0x255 SWAP2 SWAP1 PUSH2 0x18C5 JUMP JUMPDEST CALLVALUE DUP1 ISZERO PUSH2 0x444 JUMPI PUSH1 0x0 DUP1 REVERT JUMPDEST POP PUSH2 0x24B PUSH1 0x9 SLOAD DUP2 JUMP JUMPDEST CALLVALUE DUP1 ISZERO PUSH2 0x45A JUMPI PUSH1 0x0 DUP1 REVERT JUMPDEST POP PUSH1 0x0 SLOAD PUSH1 0x1 PUSH1 0x1 PUSH1 0xA0 SHL SUB AND PUSH2 0x348 JUMP JUMPDEST CALLVALUE DUP1 ISZERO PUSH2 0x478 JUMPI PUSH1 0x0 DUP1 REVERT JUMPDEST POP PUSH2 0x24B PUSH1 0xA SLOAD DUP2 JUMP JUMPDEST CALLVALUE DUP1 ISZERO PUSH2 0x48E JUMPI PUSH1 0x0 DUP1 REVERT JUMPDEST POP PUSH2 0x24B PUSH1 0xB SLOAD DUP2 JUMP JUMPDEST CALLVALUE DUP1 ISZERO PUSH2 0x4A4 JUMPI PUSH1 0x0 DUP1 REVERT JUMPDEST POP PUSH2 0x24B PUSH1 0x5 SLOAD DUP2 JUMP JUMPDEST CALLVALUE DUP1 ISZERO PUSH2 0x4BA JUMPI PUSH1 0x0 DUP1 REVERT JUMPDEST POP PUSH2 0x2A8 PUSH2 0x4C9 CALLDATASIZE PUSH1 0x4 PUSH2 0x1896 JUMP JUMPDEST PUSH2 0xA70 JUMP JUMPDEST CALLVALUE DUP1 ISZERO PUSH2 0x4DA JUMPI PUSH1 0x0 DUP1 REVERT JUMPDEST POP PUSH2 0x2A8 PUSH2 0xA7D JUMP JUMPDEST CALLVALUE DUP1 ISZERO PUSH2 0x4EF JUMPI PUSH1 0x0 DUP1 REVERT JUMPDEST POP PUSH2 0x278 PUSH2 0x4FE CALLDATASIZE PUSH1 0x4 PUSH2 0x186D JUMP JUMPDEST PUSH1 0x8 PUSH1 0x20 MSTORE PUSH1 0x0 SWAP1 DUP2 MSTORE PUSH1 0x40 SWAP1 KECCAK256 SLOAD PUSH1 0xFF AND DUP2 JUMP JUMPDEST CALLVALUE DUP1 ISZERO PUSH2 0x51F JUMPI PUSH1 0x0 DUP1 REVERT JUMPDEST POP PUSH1 0x12 SLOAD PUSH2 0x533 SWAP1 PUSH3 0x10000 SWAP1 DIV PUSH1 0xFF AND DUP2 JUMP JUMPDEST PUSH1 0x40 MLOAD PUSH2 0x255 SWAP2 SWAP1 PUSH2 0x18DF JUMP JUMPDEST CALLVALUE DUP1 ISZERO PUSH2 0x54C JUMPI PUSH1 0x0 DUP1 REVERT JUMPDEST POP PUSH2 0x24B PUSH1 0xE SLOAD DUP2 JUMP JUMPDEST CALLVALUE DUP1 ISZERO PUSH2 0x562 JUMPI PUSH1 0x0 DUP1 REVERT JUMPDEST POP PUSH2 0x24B PUSH1 0x11 SLOAD DUP2 JUMP JUMPDEST CALLVALUE DUP1 ISZERO PUSH2 0x578 JUMPI PUSH1 0x0 DUP1 REVERT JUMPDEST POP PUSH2 0x24B PUSH1 0xF SLOAD DUP2 JUMP JUMPDEST CALLVALUE DUP1 ISZERO PUSH2 0x58E JUMPI PUSH1 0x0 DUP1 REVERT JUMPDEST POP PUSH2 0x2A8 PUSH2 0xAEC JUMP JUMPDEST CALLVALUE DUP1 ISZERO PUSH2 0x5A3 JUMPI PUSH1 0x0 DUP1 REVERT JUMPDEST POP PUSH2 0x24B PUSH1 0x13 SLOAD DUP2 JUMP JUMPDEST CALLVALUE DUP1 ISZERO PUSH2 0x5B9 JUMPI PUSH1 0x0 DUP1 REVERT JUMPDEST POP PUSH2 0x2A8 PUSH2 0xC8B JUMP JUMPDEST CALLVALUE DUP1 ISZERO PUSH2 0x5CE JUMPI PUSH1 0x0 DUP1 REVERT JUMPDEST POP PUSH2 0x2A8 PUSH2 0x5DD CALLDATASIZE PUSH1 0x4 PUSH2 0x18F3 JUMP JUMPDEST PUSH2 0xDDD JUMP JUMPDEST CALLVALUE DUP1 ISZERO PUSH2 0x5EE JUMPI PUSH1 0x0 DUP1 REVERT JUMPDEST POP PUSH2 0x2A8 PUSH2 0x5FD CALLDATASIZE PUSH1 0x4 PUSH2 0x186D JUMP JUMPDEST PUSH2 0xEC8 JUMP JUMPDEST CALLVALUE DUP1 ISZERO PUSH2 0x60E JUMPI PUSH1 0x0 DUP1 REVERT JUMPDEST POP PUSH2 0x348 PUSH2 0x61D CALLDATASIZE PUSH1 0x4 PUSH2 0x1896 JUMP JUMPDEST PUSH2 0xF3E JUMP JUMPDEST CALLVALUE DUP1 ISZERO PUSH2 0x62E JUMPI PUSH1 0x0 DUP1 REVERT JUMPDEST POP PUSH2 0x24B PUSH2 0x63D CALLDATASIZE PUSH1 0x4 PUSH2 0x186D JUMP JUMPDEST PUSH2 0xF68 JUMP JUMPDEST CALLVALUE DUP1 ISZERO PUSH2 0x64E JUMPI PUSH1 0x0 DUP1 REVERT JUMPDEST POP PUSH2 0x24B PUSH1 0xD SLOAD DUP2 JUMP JUMPDEST CALLVALUE DUP1 ISZERO PUSH2 0x664 JUMPI PUSH1 0x0 DUP1 REVERT JUMPDEST POP PUSH2 0x2A8 PUSH2 0x673 CALLDATASIZE PUSH1 0x4 PUSH2 0x1896 JUMP JUMPDEST PUSH2 0xFDC JUMP JUMPDEST PUSH2 0x680 PUSH2 0x1024 JUMP JUMPDEST PUSH1 0x40 MLOAD PUSH4 0x70A08231 PUSH1 0xE0 SHL DUP2 MSTORE ADDRESS PUSH1 0x4 DUP3 ADD MSTORE DUP2 SWAP1 PUSH1 0x1 PUSH1 0x1 PUSH1 0xA0 SHL SUB DUP3 AND SWAP1 PUSH4 0xA9059CBB SWAP1 CALLER SWAP1 DUP4 SWAP1 PUSH4 0x70A08231 SWAP1 PUSH1 0x24 ADD PUSH1 0x20 PUSH1 0x40 MLOAD DUP1 DUP4 SUB DUP2 DUP7 GAS STATICCALL ISZERO DUP1 ISZERO PUSH2 0x6D0 JUMPI RETURNDATASIZE PUSH1 0x0 DUP1 RETURNDATACOPY RETURNDATASIZE PUSH1 0x0 REVERT JUMPDEST POP POP POP POP PUSH1 0x40 MLOAD RETURNDATASIZE PUSH1 0x1F NOT PUSH1 0x1F DUP3 ADD AND DUP3 ADD DUP1 PUSH1 0x40 MSTORE POP DUP2 ADD SWAP1 PUSH2 0x6F4 SWAP2 SWAP1 PUSH2 0x191F JUMP JUMPDEST PUSH1 0x40 MLOAD PUSH1 0x1 PUSH1 0x1 PUSH1 0xE0 SHL SUB NOT PUSH1 0xE0 DUP6 SWAP1 SHL AND DUP2 MSTORE PUSH1 0x1 PUSH1 0x1 PUSH1 0xA0 SHL SUB SWAP1 SWAP3 AND PUSH1 0x4 DUP4 ADD MSTORE PUSH1 0x24 DUP3 ADD MSTORE PUSH1 0x44 ADD PUSH1 0x20 PUSH1 0x40 MLOAD DUP1 DUP4 SUB DUP2 PUSH1 0x0 DUP8 GAS CALL ISZERO DUP1 ISZERO PUSH2 0x73F JUMPI RETURNDATASIZE PUSH1 0x0 DUP1 RETURNDATACOPY RETURNDATASIZE PUSH1 0x0 REVERT JUMPDEST POP POP POP POP PUSH1 0x40 MLOAD RETURNDATASIZE PUSH1 0x1F NOT PUSH1 0x1F DUP3 ADD AND DUP3 ADD DUP1 PUSH1 0x40 MSTORE POP DUP2 ADD SWAP1 PUSH2 0x763 SWAP2 SWAP1 PUSH2 0x1938 JUMP JUMPDEST POP POP POP JUMP JUMPDEST PUSH2 0x770 PUSH2 0x1024 JUMP JUMPDEST PUSH1 0x12 DUP1 SLOAD PUSH1 0x0 SWAP2 SWAP1 PUSH3 0xFF0000 NOT AND PUSH3 0x10000 DUP4 JUMPDEST MUL OR SWAP1 SSTORE POP JUMP JUMPDEST PUSH2 0x793 PUSH2 0x1024 JUMP JUMPDEST PUSH1 0x10 SSTORE JUMP JUMPDEST PUSH1 0x2 PUSH1 0x1 SLOAD SUB PUSH2 0x7C3 JUMPI PUSH1 0x40 MLOAD PUSH3 0x461BCD PUSH1 0xE5 SHL DUP2 MSTORE PUSH1 0x4 ADD PUSH2 0x7BA SWAP1 PUSH2 0x195A JUMP JUMPDEST PUSH1 0x40 MLOAD DUP1 SWAP2 SUB SWAP1 REVERT JUMPDEST PUSH1 0x2 PUSH1 0x1 SSTORE CALLER PUSH1 0x0 SWAP1 DUP2 MSTORE PUSH1 0x8 PUSH1 0x20 MSTORE PUSH1 0x40 SWAP1 KECCAK256 SLOAD PUSH1 0xFF AND ISZERO PUSH2 0x81A JUMPI PUSH1 0x40 MLOAD PUSH3 0x461BCD PUSH1 0xE5 SHL DUP2 MSTORE PUSH1 0x20 PUSH1 0x4 DUP3 ADD MSTORE PUSH1 0xF PUSH1 0x24 DUP3 ADD MSTORE PUSH15 0x105B1C9958591E48195B9D195C9959 PUSH1 0x8A SHL PUSH1 0x44 DUP3 ADD MSTORE PUSH1 0x64 ADD PUSH2 0x7BA JUMP JUMPDEST CALLER PUSH1 0x0 SWAP1 DUP2 MSTORE PUSH1 0x8 PUSH1 0x20 MSTORE PUSH1 0x40 DUP2 KECCAK256 DUP1 SLOAD PUSH1 0xFF NOT AND PUSH1 0x1 OR SWAP1 SSTORE PUSH1 0x12 SLOAD PUSH2 0x100 SWAP1 DIV PUSH1 0xFF AND PUSH1 0x2 DUP2 GT ISZERO PUSH2 0x850 JUMPI PUSH2 0x850 PUSH2 0x18AF JUMP JUMPDEST EQ PUSH2 0x893 JUMPI PUSH1 0x40 MLOAD PUSH3 0x461BCD PUSH1 0xE5 SHL DUP2 MSTORE PUSH1 0x20 PUSH1 0x4 DUP3 ADD MSTORE PUSH1 0x13 PUSH1 0x24 DUP3 ADD MSTORE PUSH19 0x131BDD1D195C9E48139BDD081CDD185C9D1959 PUSH1 0x6A SHL PUSH1 0x44 DUP3 ADD MSTORE PUSH1 0x64 ADD PUSH2 0x7BA JUMP JUMPDEST PUSH1 0x1 PUSH1 0x12 SLOAD PUSH3 0x10000 SWAP1 DIV PUSH1 0xFF AND PUSH1 0x1 DUP2 GT ISZERO PUSH2 0x8B2 JUMPI PUSH2 0x8B2 PUSH2 0x18AF JUMP JUMPDEST EQ PUSH2 0x8CF JUMPI PUSH1 0x40 MLOAD PUSH3 0x461BCD PUSH1 0xE5 SHL DUP2 MSTORE PUSH1 0x4 ADD PUSH2 0x7BA SWAP1 PUSH2 0x1991 JUMP JUMPDEST PUSH1 0x7 SLOAD CALLVALUE EQ PUSH2 0x8DF PUSH1 0x7 SLOAD PUSH2 0x107E JUMP JUMPDEST PUSH1 0x40 MLOAD PUSH1 0x20 ADD PUSH2 0x8EF SWAP2 SWAP1 PUSH2 0x19DE JUMP JUMPDEST PUSH1 0x40 MLOAD PUSH1 0x20 DUP2 DUP4 SUB SUB DUP2 MSTORE SWAP1 PUSH1 0x40 MSTORE SWAP1 PUSH2 0x91C JUMPI PUSH1 0x40 MLOAD PUSH3 0x461BCD PUSH1 0xE5 SHL DUP2 MSTORE PUSH1 0x4 ADD PUSH2 0x7BA SWAP2 SWAP1 PUSH2 0x1A31 JUMP JUMPDEST POP PUSH1 0x6 SLOAD PUSH1 0x2 SLOAD GT ISZERO PUSH2 0x97D JUMPI PUSH1 0x40 MLOAD PUSH3 0x461BCD PUSH1 0xE5 SHL DUP2 MSTORE PUSH1 0x20 PUSH1 0x4 DUP3 ADD MSTORE PUSH1 0x23 PUSH1 0x24 DUP3 ADD MSTORE PUSH32 0x4D6178696D756D204E756D626572207265616368656420666F7220206C6F7474 PUSH1 0x44 DUP3 ADD MSTORE PUSH3 0x657279 PUSH1 0xE8 SHL PUSH1 0x64 DUP3 ADD MSTORE PUSH1 0x84 ADD PUSH2 0x7BA JUMP JUMPDEST CALLER EXTCODESIZE ISZERO PUSH2 0x9C4 JUMPI PUSH1 0x40 MLOAD PUSH3 0x461BCD PUSH1 0xE5 SHL DUP2 MSTORE PUSH1 0x20 PUSH1 0x4 DUP3 ADD MSTORE PUSH1 0x15 PUSH1 0x24 DUP3 ADD MSTORE PUSH21 0x21B7B73A3930B1BA1031B0B73737BA1032B73A32B9 PUSH1 0x59 SHL PUSH1 0x44 DUP3 ADD MSTORE PUSH1 0x64 ADD PUSH2 0x7BA JUMP JUMPDEST PUSH1 0x2 DUP1 SLOAD PUSH1 0x1 DUP2 DUP2 ADD DUP4 SSTORE PUSH1 0x0 SWAP3 SWAP1 SWAP3 MSTORE PUSH32 0x405787FA12A823E0F2B7631CC41B3BA8828B3321CA811111FA75CD3AA3BB5ACE ADD DUP1 SLOAD PUSH1 0x1 PUSH1 0x1 PUSH1 0xA0 SHL SUB NOT AND CALLER OR SWAP1 SSTORE DUP1 SSTORE JUMP JUMPDEST PUSH2 0xA13 PUSH2 0x1024 JUMP JUMPDEST PUSH2 0xA1B PUSH2 0x1187 JUMP JUMPDEST POP JUMP JUMPDEST PUSH2 0xA26 PUSH2 0x1024 JUMP JUMPDEST PUSH2 0xA1B DUP2 PUSH2 0xEC8 JUMP JUMPDEST PUSH2 0xA37 PUSH2 0x1024 JUMP JUMPDEST PUSH1 0x6 SSTORE JUMP JUMPDEST PUSH2 0xA44 PUSH2 0x1024 JUMP JUMPDEST PUSH1 0x12 DUP1 SLOAD PUSH1 0x1 SWAP2 SWAP1 PUSH3 0xFF0000 NOT AND PUSH3 0x10000 DUP4 PUSH2 0x784 JUMP JUMPDEST PUSH2 0xA64 PUSH2 0x1024 JUMP JUMPDEST PUSH2 0xA6E PUSH1 0x0 PUSH2 0x13C9 JUMP JUMPDEST JUMP JUMPDEST PUSH2 0xA78 PUSH2 0x1024 JUMP JUMPDEST PUSH1 0x5 SSTORE JUMP JUMPDEST PUSH2 0xA85 PUSH2 0x1024 JUMP JUMPDEST PUSH1 0x1 PUSH1 0x12 SLOAD PUSH2 0x100 SWAP1 DIV PUSH1 0xFF AND PUSH1 0x2 DUP2 GT ISZERO PUSH2 0xAA3 JUMPI PUSH2 0xAA3 PUSH2 0x18AF JUMP JUMPDEST EQ PUSH2 0xAC0 JUMPI PUSH1 0x40 MLOAD PUSH3 0x461BCD PUSH1 0xE5 SHL DUP2 MSTORE PUSH1 0x4 ADD PUSH2 0x7BA SWAP1 PUSH2 0x1A64 JUMP JUMPDEST PUSH1 0x40 MLOAD CALLER SWAP1 SELFBALANCE DUP1 ISZERO PUSH2 0x8FC MUL SWAP2 PUSH1 0x0 DUP2 DUP2 DUP2 DUP6 DUP9 DUP9 CALL SWAP4 POP POP POP POP ISZERO DUP1 ISZERO PUSH2 0xA1B JUMPI RETURNDATASIZE PUSH1 0x0 DUP1 RETURNDATACOPY RETURNDATASIZE PUSH1 0x0 REVERT JUMPDEST PUSH1 0x2 PUSH1 0x1 SLOAD SUB PUSH2 0xB0E JUMPI PUSH1 0x40 MLOAD PUSH3 0x461BCD PUSH1 0xE5 SHL DUP2 MSTORE PUSH1 0x4 ADD PUSH2 0x7BA SWAP1 PUSH2 0x195A JUMP JUMPDEST PUSH1 0x2 PUSH1 0x1 SSTORE PUSH1 0x0 PUSH1 0x12 SLOAD PUSH2 0x100 SWAP1 DIV PUSH1 0xFF AND PUSH1 0x2 DUP2 GT ISZERO PUSH2 0xB31 JUMPI PUSH2 0xB31 PUSH2 0x18AF JUMP JUMPDEST EQ PUSH2 0xB74 JUMPI PUSH1 0x40 MLOAD PUSH3 0x461BCD PUSH1 0xE5 SHL DUP2 MSTORE PUSH1 0x20 PUSH1 0x4 DUP3 ADD MSTORE PUSH1 0x13 PUSH1 0x24 DUP3 ADD MSTORE PUSH19 0x131BDD1D195C9E48139BDD081CDD185C9D1959 PUSH1 0x6A SHL PUSH1 0x44 DUP3 ADD MSTORE PUSH1 0x64 ADD PUSH2 0x7BA JUMP JUMPDEST PUSH1 0x1 PUSH1 0x12 SLOAD PUSH3 0x10000 SWAP1 DIV PUSH1 0xFF AND PUSH1 0x1 DUP2 GT ISZERO PUSH2 0xB93 JUMPI PUSH2 0xB93 PUSH2 0x18AF JUMP JUMPDEST EQ PUSH2 0xBB0 JUMPI PUSH1 0x40 MLOAD PUSH3 0x461BCD PUSH1 0xE5 SHL DUP2 MSTORE PUSH1 0x4 ADD PUSH2 0x7BA SWAP1 PUSH2 0x1991 JUMP JUMPDEST PUSH1 0x10 SLOAD PUSH1 0xE SLOAD PUSH2 0xBC0 SWAP2 SWAP1 PUSH2 0x1AB1 JUMP JUMPDEST TIMESTAMP GT PUSH2 0xC0E JUMPI PUSH1 0x40 MLOAD PUSH3 0x461BCD PUSH1 0xE5 SHL DUP2 MSTORE PUSH1 0x20 PUSH1 0x4 DUP3 ADD MSTORE PUSH1 0x1F PUSH1 0x24 DUP3 ADD MSTORE PUSH32 0x6D696E206C6F7474657279206475726174696F6E206E6F742070617373656400 PUSH1 0x44 DUP3 ADD MSTORE PUSH1 0x64 ADD PUSH2 0x7BA JUMP JUMPDEST CALLER EXTCODESIZE ISZERO PUSH2 0xC55 JUMPI PUSH1 0x40 MLOAD PUSH3 0x461BCD PUSH1 0xE5 SHL DUP2 MSTORE PUSH1 0x20 PUSH1 0x4 DUP3 ADD MSTORE PUSH1 0x15 PUSH1 0x24 DUP3 ADD MSTORE PUSH21 0x21B7B73A3930B1BA1031B0B73737BA1032B73A32B9 PUSH1 0x59 SHL PUSH1 0x44 DUP3 ADD MSTORE PUSH1 0x64 ADD PUSH2 0x7BA JUMP JUMPDEST PUSH1 0x5 SLOAD PUSH1 0x2 SLOAD LT ISZERO PUSH2 0xC6E JUMPI PUSH2 0xC69 PUSH2 0x1419 JUMP JUMPDEST PUSH2 0xC85 JUMP JUMPDEST PUSH1 0x12 DUP1 SLOAD PUSH2 0xFF00 NOT AND PUSH2 0x200 OR SWAP1 SSTORE PUSH2 0xC85 PUSH2 0x157A JUMP JUMPDEST PUSH1 0x1 DUP1 SSTORE JUMP JUMPDEST PUSH1 0x2 PUSH1 0x1 SLOAD SUB PUSH2 0xCAD JUMPI PUSH1 0x40 MLOAD PUSH3 0x461BCD PUSH1 0xE5 SHL DUP2 MSTORE PUSH1 0x4 ADD PUSH2 0x7BA SWAP1 PUSH2 0x195A JUMP JUMPDEST PUSH1 0x2 PUSH1 0x1 SWAP1 DUP2 SSTORE PUSH1 0x12 SLOAD PUSH2 0x100 SWAP1 DIV PUSH1 0xFF AND PUSH1 0x2 DUP2 GT ISZERO PUSH2 0xCD0 JUMPI PUSH2 0xCD0 PUSH2 0x18AF JUMP JUMPDEST EQ PUSH2 0xD1D JUMPI PUSH1 0x40 MLOAD PUSH3 0x461BCD PUSH1 0xE5 SHL DUP2 MSTORE PUSH1 0x20 PUSH1 0x4 DUP3 ADD MSTORE PUSH1 0x17 PUSH1 0x24 DUP3 ADD MSTORE PUSH32 0x4C6F747465727920416C72656164792073746172746564000000000000000000 PUSH1 0x44 DUP3 ADD MSTORE PUSH1 0x64 ADD PUSH2 0x7BA JUMP JUMPDEST PUSH1 0x1 PUSH1 0x12 SLOAD PUSH3 0x10000 SWAP1 DIV PUSH1 0xFF AND PUSH1 0x1 DUP2 GT ISZERO PUSH2 0xD3C JUMPI PUSH2 0xD3C PUSH2 0x18AF JUMP JUMPDEST EQ PUSH2 0xD59 JUMPI PUSH1 0x40 MLOAD PUSH3 0x461BCD PUSH1 0xE5 SHL DUP2 MSTORE PUSH1 0x4 ADD PUSH2 0x7BA SWAP1 PUSH2 0x1991 JUMP JUMPDEST PUSH1 0x11 SLOAD PUSH1 0xF SLOAD PUSH2 0xD69 SWAP2 SWAP1 PUSH2 0x1AB1 JUMP JUMPDEST TIMESTAMP GT PUSH2 0xDC3 JUMPI PUSH1 0x40 MLOAD PUSH3 0x461BCD PUSH1 0xE5 SHL DUP2 MSTORE PUSH1 0x20 PUSH1 0x4 DUP3 ADD MSTORE PUSH1 0x24 DUP1 DUP3 ADD MSTORE PUSH32 0x6D696E206C6F74746572792070726570206475726174696F6E206E6F74207061 PUSH1 0x44 DUP3 ADD MSTORE PUSH4 0x1CDCD959 PUSH1 0xE2 SHL PUSH1 0x64 DUP3 ADD MSTORE PUSH1 0x84 ADD PUSH2 0x7BA JUMP JUMPDEST PUSH1 0x12 DUP1 SLOAD PUSH2 0xFF00 NOT AND SWAP1 SSTORE PUSH1 0x0 PUSH1 0x4 SSTORE TIMESTAMP PUSH1 0xE SSTORE PUSH1 0x1 DUP1 SSTORE JUMP JUMPDEST PUSH2 0xDE5 PUSH2 0x1024 JUMP JUMPDEST PUSH1 0x1 PUSH1 0x12 SLOAD PUSH2 0x100 SWAP1 DIV PUSH1 0xFF AND PUSH1 0x2 DUP2 GT ISZERO PUSH2 0xE03 JUMPI PUSH2 0xE03 PUSH2 0x18AF JUMP JUMPDEST EQ PUSH2 0xE20 JUMPI PUSH1 0x40 MLOAD PUSH3 0x461BCD PUSH1 0xE5 SHL DUP2 MSTORE PUSH1 0x4 ADD PUSH2 0x7BA SWAP1 PUSH2 0x1A64 JUMP JUMPDEST PUSH1 0x64 DUP2 PUSH2 0xE2D DUP5 DUP7 PUSH2 0x1AB1 JUMP JUMPDEST PUSH2 0xE37 SWAP2 SWAP1 PUSH2 0x1AB1 JUMP JUMPDEST GT ISZERO PUSH2 0xE78 JUMPI PUSH1 0x40 MLOAD PUSH3 0x461BCD PUSH1 0xE5 SHL DUP2 MSTORE PUSH1 0x20 PUSH1 0x4 DUP3 ADD MSTORE PUSH1 0x10 PUSH1 0x24 DUP3 ADD MSTORE PUSH16 0x63616E206E6F74206F7665722031303 PUSH1 0x84 SHL PUSH1 0x44 DUP3 ADD MSTORE PUSH1 0x64 ADD PUSH2 0x7BA JUMP JUMPDEST PUSH1 0x32 DUP4 LT PUSH2 0xEBA JUMPI PUSH1 0x40 MLOAD PUSH3 0x461BCD PUSH1 0xE5 SHL DUP2 MSTORE PUSH1 0x20 PUSH1 0x4 DUP3 ADD MSTORE PUSH1 0xF PUSH1 0x24 DUP3 ADD MSTORE PUSH15 0x63616E206E6F74206C65737320353 PUSH1 0x8C SHL PUSH1 0x44 DUP3 ADD MSTORE PUSH1 0x64 ADD PUSH2 0x7BA JUMP JUMPDEST PUSH1 0x9 SWAP3 SWAP1 SWAP3 SSTORE PUSH1 0xA SSTORE PUSH1 0xB SSTORE JUMP JUMPDEST PUSH2 0xED0 PUSH2 0x1024 JUMP JUMPDEST PUSH1 0x1 PUSH1 0x1 PUSH1 0xA0 SHL SUB DUP2 AND PUSH2 0xF35 JUMPI PUSH1 0x40 MLOAD PUSH3 0x461BCD PUSH1 0xE5 SHL DUP2 MSTORE PUSH1 0x20 PUSH1 0x4 DUP3 ADD MSTORE PUSH1 0x26 PUSH1 0x24 DUP3 ADD MSTORE PUSH32 0x4F776E61626C653A206E6577206F776E657220697320746865207A65726F2061 PUSH1 0x44 DUP3 ADD MSTORE PUSH6 0x646472657373 PUSH1 0xD0 SHL PUSH1 0x64 DUP3 ADD MSTORE PUSH1 0x84 ADD PUSH2 0x7BA JUMP JUMPDEST PUSH2 0xA1B DUP2 PUSH2 0x13C9 JUMP JUMPDEST PUSH1 0x2 DUP2 DUP2 SLOAD DUP2 LT PUSH2 0xF4E JUMPI PUSH1 0x0 DUP1 REVERT JUMPDEST PUSH1 0x0 SWAP2 DUP3 MSTORE PUSH1 0x20 SWAP1 SWAP2 KECCAK256 ADD SLOAD PUSH1 0x1 PUSH1 0x1 PUSH1 0xA0 SHL SUB AND SWAP1 POP DUP2 JUMP JUMPDEST PUSH1 0x40 MLOAD PUSH4 0x70A08231 PUSH1 0xE0 SHL DUP2 MSTORE ADDRESS PUSH1 0x4 DUP3 ADD MSTORE PUSH1 0x0 SWAP1 DUP2 SWAP1 PUSH1 0x1 PUSH1 0x1 PUSH1 0xA0 SHL SUB DUP5 AND SWAP1 PUSH4 0x70A08231 SWAP1 PUSH1 0x24 ADD PUSH1 0x20 PUSH1 0x40 MLOAD DUP1 DUP4 SUB DUP2 DUP7 GAS STATICCALL ISZERO DUP1 ISZERO PUSH2 0xFB1 JUMPI RETURNDATASIZE PUSH1 0x0 DUP1 RETURNDATACOPY RETURNDATASIZE PUSH1 0x0 REVERT JUMPDEST POP POP POP POP PUSH1 0x40 MLOAD RETURNDATASIZE PUSH1 0x1F NOT PUSH1 0x1F DUP3 ADD AND DUP3 ADD DUP1 PUSH1 0x40 MSTORE POP DUP2 ADD SWAP1 PUSH2 0xFD5 SWAP2 SWAP1 PUSH2 0x191F JUMP JUMPDEST SWAP4 SWAP3 POP POP POP JUMP JUMPDEST PUSH2 0xFE4 PUSH2 0x1024 JUMP JUMPDEST PUSH1 0x1 PUSH1 0x12 SLOAD PUSH2 0x100 SWAP1 DIV PUSH1 0xFF AND PUSH1 0x2 DUP2 GT ISZERO PUSH2 0x1002 JUMPI PUSH2 0x1002 PUSH2 0x18AF JUMP JUMPDEST EQ PUSH2 0x101F JUMPI PUSH1 0x40 MLOAD PUSH3 0x461BCD PUSH1 0xE5 SHL DUP2 MSTORE PUSH1 0x4 ADD PUSH2 0x7BA SWAP1 PUSH2 0x1A64 JUMP JUMPDEST PUSH1 0x7 SSTORE JUMP JUMPDEST PUSH1 0x0 SLOAD PUSH1 0x1 PUSH1 0x1 PUSH1 0xA0 SHL SUB AND CALLER EQ PUSH2 0xA6E JUMPI PUSH1 0x40 MLOAD PUSH3 0x461BCD PUSH1 0xE5 SHL DUP2 MSTORE PUSH1 0x20 PUSH1 0x4 DUP3 ADD DUP2 SWAP1 MSTORE PUSH1 0x24 DUP3 ADD MSTORE PUSH32 0x4F776E61626C653A2063616C6C6572206973206E6F7420746865206F776E6572 PUSH1 0x44 DUP3 ADD MSTORE PUSH1 0x64 ADD PUSH2 0x7BA JUMP JUMPDEST PUSH1 0x60 DUP2 PUSH1 0x0 SUB PUSH2 0x10A5 JUMPI POP POP PUSH1 0x40 DUP1 MLOAD DUP1 DUP3 ADD SWAP1 SWAP2 MSTORE PUSH1 0x1 DUP2 MSTORE PUSH1 0x3 PUSH1 0xFC SHL PUSH1 0x20 DUP3 ADD MSTORE SWAP1 JUMP JUMPDEST DUP2 PUSH1 0x0 JUMPDEST DUP2 ISZERO PUSH2 0x10CF JUMPI DUP1 PUSH2 0x10B9 DUP2 PUSH2 0x1ACA JUMP JUMPDEST SWAP2 POP PUSH2 0x10C8 SWAP1 POP PUSH1 0xA DUP4 PUSH2 0x1AF9 JUMP JUMPDEST SWAP2 POP PUSH2 0x10A9 JUMP JUMPDEST PUSH1 0x0 DUP2 PUSH8 0xFFFFFFFFFFFFFFFF DUP2 GT ISZERO PUSH2 0x10EA JUMPI PUSH2 0x10EA PUSH2 0x1B0D JUMP JUMPDEST PUSH1 0x40 MLOAD SWAP1 DUP1 DUP3 MSTORE DUP1 PUSH1 0x1F ADD PUSH1 0x1F NOT AND PUSH1 0x20 ADD DUP3 ADD PUSH1 0x40 MSTORE DUP1 ISZERO PUSH2 0x1114 JUMPI PUSH1 0x20 DUP3 ADD DUP2 DUP1 CALLDATASIZE DUP4 CALLDATACOPY ADD SWAP1 POP JUMPDEST POP SWAP1 POP JUMPDEST DUP5 ISZERO PUSH2 0x117F JUMPI PUSH2 0x1129 PUSH1 0x1 DUP4 PUSH2 0x1B23 JUMP JUMPDEST SWAP2 POP PUSH2 0x1136 PUSH1 0xA DUP7 PUSH2 0x1B36 JUMP JUMPDEST PUSH2 0x1141 SWAP1 PUSH1 0x30 PUSH2 0x1AB1 JUMP JUMPDEST PUSH1 0xF8 SHL DUP2 DUP4 DUP2 MLOAD DUP2 LT PUSH2 0x1156 JUMPI PUSH2 0x1156 PUSH2 0x1B4A JUMP JUMPDEST PUSH1 0x20 ADD ADD SWAP1 PUSH1 0x1 PUSH1 0x1 PUSH1 0xF8 SHL SUB NOT AND SWAP1 DUP2 PUSH1 0x0 BYTE SWAP1 MSTORE8 POP PUSH2 0x1178 PUSH1 0xA DUP7 PUSH2 0x1AF9 JUMP JUMPDEST SWAP5 POP PUSH2 0x1118 JUMP JUMPDEST SWAP5 SWAP4 POP POP POP POP JUMP JUMPDEST PUSH1 0x0 PUSH1 0x2 PUSH1 0x12 SLOAD PUSH2 0x100 SWAP1 DIV PUSH1 0xFF AND PUSH1 0x2 DUP2 GT ISZERO PUSH2 0x11A7 JUMPI PUSH2 0x11A7 PUSH2 0x18AF JUMP JUMPDEST EQ PUSH2 0x11F4 JUMPI PUSH1 0x40 MLOAD PUSH3 0x461BCD PUSH1 0xE5 SHL DUP2 MSTORE PUSH1 0x20 PUSH1 0x4 DUP3 ADD MSTORE PUSH1 0x17 PUSH1 0x24 DUP3 ADD MSTORE PUSH32 0x2073656E64207072697A652077726F6E67207374617465000000000000000000 PUSH1 0x44 DUP3 ADD MSTORE PUSH1 0x64 ADD PUSH2 0x7BA JUMP JUMPDEST PUSH1 0x12 SLOAD SELFBALANCE SWAP1 PUSH1 0xFF AND PUSH2 0x1305 JUMPI PUSH1 0x0 DUP1 PUSH2 0x1215 PUSH1 0x0 SLOAD PUSH1 0x1 PUSH1 0x1 PUSH1 0xA0 SHL SUB AND SWAP1 JUMP JUMPDEST PUSH1 0x1 PUSH1 0x1 PUSH1 0xA0 SHL SUB AND PUSH1 0x64 PUSH1 0xA SLOAD DUP6 PUSH2 0x122E SWAP2 SWAP1 PUSH2 0x1B60 JUMP JUMPDEST PUSH2 0x1238 SWAP2 SWAP1 PUSH2 0x1AF9 JUMP JUMPDEST PUSH1 0x40 MLOAD PUSH1 0x0 DUP2 DUP2 DUP2 DUP6 DUP8 GAS CALL SWAP3 POP POP POP RETURNDATASIZE DUP1 PUSH1 0x0 DUP2 EQ PUSH2 0x1274 JUMPI PUSH1 0x40 MLOAD SWAP2 POP PUSH1 0x1F NOT PUSH1 0x3F RETURNDATASIZE ADD AND DUP3 ADD PUSH1 0x40 MSTORE RETURNDATASIZE DUP3 MSTORE RETURNDATASIZE PUSH1 0x0 PUSH1 0x20 DUP5 ADD RETURNDATACOPY PUSH2 0x1279 JUMP JUMPDEST PUSH1 0x60 SWAP2 POP JUMPDEST POP PUSH1 0x12 DUP1 SLOAD PUSH1 0xFF NOT AND DUP4 ISZERO ISZERO SWAP1 DUP2 OR SWAP1 SWAP2 SSTORE SWAP2 SWAP4 POP SWAP2 POP PUSH1 0xFF AND PUSH2 0x1302 JUMPI PUSH1 0x0 SLOAD PUSH1 0x1 PUSH1 0x1 PUSH1 0xA0 SHL SUB AND PUSH1 0x1 PUSH1 0x1 PUSH1 0xA0 SHL SUB AND PUSH32 0x7A4C4FDF5D3172470D96D64C965B30DE694852175EFC7A6B546FB3BDBF76D178 PUSH1 0x64 PUSH1 0xA SLOAD DUP7 PUSH2 0x12DD SWAP2 SWAP1 PUSH2 0x1B60 JUMP JUMPDEST PUSH2 0x12E7 SWAP2 SWAP1 PUSH2 0x1AF9 JUMP JUMPDEST PUSH1 0x40 MLOAD SWAP1 DUP2 MSTORE PUSH1 0x20 ADD PUSH1 0x40 MLOAD DUP1 SWAP2 SUB SWAP1 LOG2 PUSH1 0x1 SWAP4 POP POP POP POP SWAP1 JUMP JUMPDEST POP POP JUMPDEST PUSH1 0x3 SLOAD PUSH1 0x9 SLOAD PUSH1 0x0 SWAP2 DUP3 SWAP2 PUSH1 0x1 PUSH1 0x1 PUSH1 0xA0 SHL SUB SWAP1 SWAP2 AND SWAP1 PUSH1 0x64 SWAP1 PUSH2 0x1329 SWAP1 DUP7 PUSH2 0x1B60 JUMP JUMPDEST PUSH2 0x1333 SWAP2 SWAP1 PUSH2 0x1AF9 JUMP JUMPDEST PUSH1 0x40 MLOAD PUSH1 0x0 DUP2 DUP2 DUP2 DUP6 DUP8 GAS CALL SWAP3 POP POP POP RETURNDATASIZE DUP1 PUSH1 0x0 DUP2 EQ PUSH2 0x136F JUMPI PUSH1 0x40 MLOAD SWAP2 POP PUSH1 0x1F NOT PUSH1 0x3F RETURNDATASIZE ADD AND DUP3 ADD PUSH1 0x40 MSTORE RETURNDATASIZE DUP3 MSTORE RETURNDATASIZE PUSH1 0x0 PUSH1 0x20 DUP5 ADD RETURNDATACOPY PUSH2 0x1374 JUMP JUMPDEST PUSH1 0x60 SWAP2 POP JUMPDEST POP SWAP2 POP SWAP2 POP DUP2 PUSH2 0x13BF JUMPI PUSH1 0x3 SLOAD PUSH1 0x9 SLOAD PUSH1 0x1 PUSH1 0x1 PUSH1 0xA0 SHL SUB SWAP1 SWAP2 AND SWAP1 PUSH32 0x977E2C32BE07C8AA27BFE58F2BF200E11ECA859B94D36E76E645FCAF1D4CC946 SWAP1 PUSH1 0x64 SWAP1 PUSH2 0x12DD SWAP1 DUP8 PUSH2 0x1B60 JUMP JUMPDEST PUSH1 0x0 SWAP4 POP POP POP POP SWAP1 JUMP JUMPDEST PUSH1 0x0 DUP1 SLOAD PUSH1 0x1 PUSH1 0x1 PUSH1 0xA0 SHL SUB DUP4 DUP2 AND PUSH1 0x1 PUSH1 0x1 PUSH1 0xA0 SHL SUB NOT DUP4 AND DUP2 OR DUP5 SSTORE PUSH1 0x40 MLOAD SWAP2 SWAP1 SWAP3 AND SWAP3 DUP4 SWAP2 PUSH32 0x8BE0079C531659141344CD1FD0A4F28419497F9722A3DAAFE3B4186F6B6457E0 SWAP2 SWAP1 LOG3 POP POP JUMP JUMPDEST PUSH1 0x0 JUMPDEST PUSH1 0x2 SLOAD PUSH1 0xFF DUP3 AND LT ISZERO PUSH2 0x1571 JUMPI PUSH1 0x0 DUP1 PUSH1 0x2 DUP4 PUSH1 0xFF AND DUP2 SLOAD DUP2 LT PUSH2 0x1442 JUMPI PUSH2 0x1442 PUSH2 0x1B4A JUMP JUMPDEST PUSH1 0x0 SWAP2 DUP3 MSTORE PUSH1 0x20 DUP3 KECCAK256 ADD SLOAD PUSH1 0x7 SLOAD PUSH1 0x40 MLOAD PUSH1 0x1 PUSH1 0x1 PUSH1 0xA0 SHL SUB SWAP1 SWAP3 AND SWAP3 SWAP1 SWAP2 SWAP1 DUP2 DUP2 DUP2 DUP6 DUP8 GAS CALL SWAP3 POP POP POP RETURNDATASIZE DUP1 PUSH1 0x0 DUP2 EQ PUSH2 0x1499 JUMPI PUSH1 0x40 MLOAD SWAP2 POP PUSH1 0x1F NOT PUSH1 0x3F RETURNDATASIZE ADD AND DUP3 ADD PUSH1 0x40 MSTORE RETURNDATASIZE DUP3 MSTORE RETURNDATASIZE PUSH1 0x0 PUSH1 0x20 DUP5 ADD RETURNDATACOPY PUSH2 0x149E JUMP JUMPDEST PUSH1 0x60 SWAP2 POP JUMPDEST POP SWAP2 POP SWAP2 POP PUSH1 0x0 PUSH1 0x8 PUSH1 0x0 PUSH1 0x2 DUP7 PUSH1 0xFF AND DUP2 SLOAD DUP2 LT PUSH2 0x14BF JUMPI PUSH2 0x14BF PUSH2 0x1B4A JUMP JUMPDEST PUSH1 0x0 SWAP2 DUP3 MSTORE PUSH1 0x20 DUP1 DUP4 KECCAK256 SWAP2 SWAP1 SWAP2 ADD SLOAD PUSH1 0x1 PUSH1 0x1 PUSH1 0xA0 SHL SUB AND DUP4 MSTORE DUP3 ADD SWAP3 SWAP1 SWAP3 MSTORE PUSH1 0x40 ADD SWAP1 KECCAK256 DUP1 SLOAD PUSH1 0xFF NOT AND SWAP2 ISZERO ISZERO SWAP2 SWAP1 SWAP2 OR SWAP1 SSTORE DUP2 PUSH2 0x155C JUMPI PUSH1 0x2 DUP4 PUSH1 0xFF AND DUP2 SLOAD DUP2 LT PUSH2 0x150E JUMPI PUSH2 0x150E PUSH2 0x1B4A JUMP JUMPDEST PUSH1 0x0 SWAP2 DUP3 MSTORE PUSH1 0x20 SWAP2 DUP3 SWAP1 KECCAK256 ADD SLOAD PUSH1 0x7 SLOAD PUSH1 0x40 MLOAD SWAP1 DUP2 MSTORE PUSH1 0x1 PUSH1 0x1 PUSH1 0xA0 SHL SUB SWAP1 SWAP2 AND SWAP2 PUSH32 0x1198B3902400A4722F08A21EB834E8F872109A5DAB83213639D3670A10D8D40A SWAP2 ADD PUSH1 0x40 MLOAD DUP1 SWAP2 SUB SWAP1 LOG2 JUMPDEST POP POP DUP1 DUP1 PUSH2 0x1569 SWAP1 PUSH2 0x1B77 JUMP JUMPDEST SWAP2 POP POP PUSH2 0x141C JUMP JUMPDEST POP PUSH2 0xA6E PUSH2 0x1666 JUMP JUMPDEST PUSH1 0x2 PUSH1 0x0 DUP2 SLOAD DUP2 LT PUSH2 0x158E JUMPI PUSH2 0x158E PUSH2 0x1B4A JUMP JUMPDEST PUSH1 0x0 SWAP2 DUP3 MSTORE PUSH1 0x20 SWAP1 SWAP2 KECCAK256 ADD SLOAD PUSH1 0x2 DUP1 SLOAD PUSH1 0x1 PUSH1 0x1 PUSH1 0xA0 SHL SUB SWAP1 SWAP3 AND SWAP2 PUSH1 0x1 SWAP1 DUP2 LT PUSH2 0x15BB JUMPI PUSH2 0x15BB PUSH2 0x1B4A JUMP JUMPDEST PUSH1 0x0 SWAP2 DUP3 MSTORE PUSH1 0x20 SWAP1 SWAP2 KECCAK256 ADD SLOAD PUSH1 0x2 DUP1 SLOAD PUSH1 0x1 PUSH1 0x1 PUSH1 0xA0 SHL SUB SWAP1 SWAP3 AND SWAP2 PUSH2 0x15E3 SWAP1 PUSH1 0x1 SWAP1 PUSH2 0x1B23 JUMP JUMPDEST DUP2 SLOAD DUP2 LT PUSH2 0x15F3 JUMPI PUSH2 0x15F3 PUSH2 0x1B4A JUMP JUMPDEST PUSH1 0x0 SWAP2 DUP3 MSTORE PUSH1 0x20 SWAP2 DUP3 SWAP1 KECCAK256 ADD SLOAD PUSH1 0x40 MLOAD PUSH12 0xFFFFFFFFFFFFFFFFFFFFFFFF NOT PUSH1 0x60 SWAP6 DUP7 SHL DUP2 AND SWAP4 DUP3 ADD SWAP4 SWAP1 SWAP4 MSTORE SWAP3 DUP5 SHL DUP3 AND PUSH1 0x34 DUP5 ADD MSTORE SWAP1 SWAP3 SHL SWAP1 SWAP2 AND PUSH1 0x48 DUP3 ADD MSTORE DIFFICULTY PUSH1 0x5C DUP3 ADD MSTORE TIMESTAMP PUSH1 0x7C DUP3 ADD MSTORE PUSH1 0x9C ADD PUSH1 0x40 DUP1 MLOAD PUSH1 0x1F NOT DUP2 DUP5 SUB ADD DUP2 MSTORE SWAP2 SWAP1 MSTORE DUP1 MLOAD PUSH1 0x20 SWAP1 SWAP2 ADD KECCAK256 PUSH1 0x4 SSTORE PUSH2 0xA6E PUSH2 0x1711 JUMP JUMPDEST PUSH1 0x0 JUMPDEST PUSH1 0x2 SLOAD PUSH1 0xFF DUP3 AND LT ISZERO PUSH2 0x16D8 JUMPI PUSH1 0x0 PUSH1 0x8 PUSH1 0x0 PUSH1 0x2 DUP5 PUSH1 0xFF AND DUP2 SLOAD DUP2 LT PUSH2 0x1692 JUMPI PUSH2 0x1692 PUSH2 0x1B4A JUMP JUMPDEST PUSH1 0x0 SWAP2 DUP3 MSTORE PUSH1 0x20 DUP1 DUP4 KECCAK256 SWAP2 SWAP1 SWAP2 ADD SLOAD PUSH1 0x1 PUSH1 0x1 PUSH1 0xA0 SHL SUB AND DUP4 MSTORE DUP3 ADD SWAP3 SWAP1 SWAP3 MSTORE PUSH1 0x40 ADD SWAP1 KECCAK256 DUP1 SLOAD PUSH1 0xFF NOT AND SWAP2 ISZERO ISZERO SWAP2 SWAP1 SWAP2 OR SWAP1 SSTORE DUP1 PUSH2 0x16D0 DUP2 PUSH2 0x1B77 JUMP JUMPDEST SWAP2 POP POP PUSH2 0x1669 JUMP JUMPDEST POP PUSH1 0x40 DUP1 MLOAD PUSH1 0x0 DUP2 MSTORE PUSH1 0x20 DUP2 ADD SWAP2 DUP3 SWAP1 MSTORE MLOAD PUSH2 0x16F6 SWAP2 PUSH1 0x2 SWAP2 PUSH2 0x17F3 JUMP JUMPDEST POP PUSH1 0x12 DUP1 SLOAD PUSH1 0x0 PUSH1 0xD SSTORE PUSH2 0xFFFF NOT AND PUSH2 0x100 OR SWAP1 SSTORE TIMESTAMP PUSH1 0xF SSTORE JUMP JUMPDEST PUSH1 0x0 PUSH1 0x4 SLOAD PUSH1 0x0 SUB PUSH2 0x175C JUMPI PUSH1 0x40 MLOAD PUSH3 0x461BCD PUSH1 0xE5 SHL DUP2 MSTORE PUSH1 0x20 PUSH1 0x4 DUP3 ADD MSTORE PUSH1 0x14 PUSH1 0x24 DUP3 ADD MSTORE PUSH20 0x63616E742066696E642072616E646F6D6E657373 PUSH1 0x60 SHL PUSH1 0x44 DUP3 ADD MSTORE PUSH1 0x64 ADD PUSH2 0x7BA JUMP JUMPDEST PUSH1 0x2 SLOAD PUSH1 0x4 SLOAD PUSH1 0x0 SWAP2 PUSH2 0x176E SWAP2 PUSH2 0x1B36 JUMP JUMPDEST SWAP1 POP PUSH1 0x2 DUP2 DUP2 SLOAD DUP2 LT PUSH2 0x1783 JUMPI PUSH2 0x1783 PUSH2 0x1B4A JUMP JUMPDEST PUSH1 0x0 SWAP2 DUP3 MSTORE PUSH1 0x20 SWAP1 SWAP2 KECCAK256 ADD SLOAD PUSH1 0x3 DUP1 SLOAD PUSH1 0x1 PUSH1 0x1 PUSH1 0xA0 SHL SUB NOT AND PUSH1 0x1 PUSH1 0x1 PUSH1 0xA0 SHL SUB SWAP1 SWAP3 AND SWAP2 SWAP1 SWAP2 OR SWAP1 SSTORE PUSH2 0x17B6 PUSH2 0x1187 JUMP JUMPDEST SWAP2 POP DUP2 PUSH1 0x0 SUB PUSH2 0x17CC JUMPI PUSH2 0x17C8 PUSH2 0x1666 JUMP JUMPDEST POP POP JUMP JUMPDEST PUSH1 0xD SLOAD PUSH2 0x17DA SWAP1 PUSH1 0x1 PUSH2 0x1AB1 JUMP JUMPDEST PUSH1 0xD DUP2 SWAP1 SSTORE PUSH1 0x3 SUB PUSH2 0x17C8 JUMPI PUSH1 0x0 PUSH1 0xD SSTORE PUSH2 0x17C8 PUSH2 0x157A JUMP JUMPDEST DUP3 DUP1 SLOAD DUP3 DUP3 SSTORE SWAP1 PUSH1 0x0 MSTORE PUSH1 0x20 PUSH1 0x0 KECCAK256 SWAP1 DUP2 ADD SWAP3 DUP3 ISZERO PUSH2 0x1848 JUMPI SWAP2 PUSH1 0x20 MUL DUP3 ADD JUMPDEST DUP3 DUP2 GT ISZERO PUSH2 0x1848 JUMPI DUP3 MLOAD DUP3 SLOAD PUSH1 0x1 PUSH1 0x1 PUSH1 0xA0 SHL SUB NOT AND PUSH1 0x1 PUSH1 0x1 PUSH1 0xA0 SHL SUB SWAP1 SWAP2 AND OR DUP3 SSTORE PUSH1 0x20 SWAP1 SWAP3 ADD SWAP2 PUSH1 0x1 SWAP1 SWAP2 ADD SWAP1 PUSH2 0x1813 JUMP JUMPDEST POP PUSH2 0x1854 SWAP3 SWAP2 POP PUSH2 0x1858 JUMP JUMPDEST POP SWAP1 JUMP JUMPDEST JUMPDEST DUP1 DUP3 GT ISZERO PUSH2 0x1854 JUMPI PUSH1 0x0 DUP2 SSTORE PUSH1 0x1 ADD PUSH2 0x1859 JUMP JUMPDEST PUSH1 0x0 PUSH1 0x20 DUP3 DUP5 SUB SLT ISZERO PUSH2 0x187F JUMPI PUSH1 0x0 DUP1 REVERT JUMPDEST DUP2 CALLDATALOAD PUSH1 0x1 PUSH1 0x1 PUSH1 0xA0 SHL SUB DUP2 AND DUP2 EQ PUSH2 0xFD5 JUMPI PUSH1 0x0 DUP1 REVERT JUMPDEST PUSH1 0x0 PUSH1 0x20 DUP3 DUP5 SUB SLT ISZERO PUSH2 0x18A8 JUMPI PUSH1 0x0 DUP1 REVERT JUMPDEST POP CALLDATALOAD SWAP2 SWAP1 POP JUMP JUMPDEST PUSH4 0x4E487B71 PUSH1 0xE0 SHL PUSH1 0x0 MSTORE PUSH1 0x21 PUSH1 0x4 MSTORE PUSH1 0x24 PUSH1 0x0 REVERT JUMPDEST PUSH1 0x20 DUP2 ADD PUSH1 0x3 DUP4 LT PUSH2 0x18D9 JUMPI PUSH2 0x18D9 PUSH2 0x18AF JUMP JUMPDEST SWAP2 SWAP1 MSTORE SWAP1 JUMP JUMPDEST PUSH1 0x20 DUP2 ADD PUSH1 0x2 DUP4 LT PUSH2 0x18D9 JUMPI PUSH2 0x18D9 PUSH2 0x18AF JUMP JUMPDEST PUSH1 0x0 DUP1 PUSH1 0x0 PUSH1 0x60 DUP5 DUP7 SUB SLT ISZERO PUSH2 0x1908 JUMPI PUSH1 0x0 DUP1 REVERT JUMPDEST POP POP DUP2 CALLDATALOAD SWAP4 PUSH1 0x20 DUP4 ADD CALLDATALOAD SWAP4 POP PUSH1 0x40 SWAP1 SWAP3 ADD CALLDATALOAD SWAP2 SWAP1 POP JUMP JUMPDEST PUSH1 0x0 PUSH1 0x20 DUP3 DUP5 SUB SLT ISZERO PUSH2 0x1931 JUMPI PUSH1 0x0 DUP1 REVERT JUMPDEST POP MLOAD SWAP2 SWAP1 POP JUMP JUMPDEST PUSH1 0x0 PUSH1 0x20 DUP3 DUP5 SUB SLT ISZERO PUSH2 0x194A JUMPI PUSH1 0x0 DUP1 REVERT JUMPDEST DUP2 MLOAD DUP1 ISZERO ISZERO DUP2 EQ PUSH2 0xFD5 JUMPI PUSH1 0x0 DUP1 REVERT JUMPDEST PUSH1 0x20 DUP1 DUP3 MSTORE PUSH1 0x1F SWAP1 DUP3 ADD MSTORE PUSH32 0x5265656E7472616E637947756172643A207265656E7472616E742063616C6C00 PUSH1 0x40 DUP3 ADD MSTORE PUSH1 0x60 ADD SWAP1 JUMP JUMPDEST PUSH1 0x20 DUP1 DUP3 MSTORE PUSH1 0xF SWAP1 DUP3 ADD MSTORE PUSH15 0x131BDD1D195C9E4814DD1BDC1C1959 PUSH1 0x8A SHL PUSH1 0x40 DUP3 ADD MSTORE PUSH1 0x60 ADD SWAP1 JUMP JUMPDEST PUSH1 0x0 JUMPDEST DUP4 DUP2 LT ISZERO PUSH2 0x19D5 JUMPI DUP2 DUP2 ADD MLOAD DUP4 DUP3 ADD MSTORE PUSH1 0x20 ADD PUSH2 0x19BD JUMP JUMPDEST POP POP PUSH1 0x0 SWAP2 ADD MSTORE JUMP JUMPDEST PUSH32 0x456E74727920666565206D75737420626520657175616C20746F3A2000000000 DUP2 MSTORE PUSH1 0x0 DUP3 MLOAD PUSH2 0x1A16 DUP2 PUSH1 0x1C DUP6 ADD PUSH1 0x20 DUP8 ADD PUSH2 0x19BA JUMP JUMPDEST PUSH4 0x408AE8D PUSH1 0xE3 SHL PUSH1 0x1C SWAP4 SWAP1 SWAP2 ADD SWAP3 DUP4 ADD MSTORE POP PUSH1 0x20 ADD SWAP2 SWAP1 POP JUMP JUMPDEST PUSH1 0x20 DUP2 MSTORE PUSH1 0x0 DUP3 MLOAD DUP1 PUSH1 0x20 DUP5 ADD MSTORE PUSH2 0x1A50 DUP2 PUSH1 0x40 DUP6 ADD PUSH1 0x20 DUP8 ADD PUSH2 0x19BA JUMP JUMPDEST PUSH1 0x1F ADD PUSH1 0x1F NOT AND SWAP2 SWAP1 SWAP2 ADD PUSH1 0x40 ADD SWAP3 SWAP2 POP POP JUMP JUMPDEST PUSH1 0x20 DUP1 DUP3 MSTORE PUSH1 0x1D SWAP1 DUP3 ADD MSTORE PUSH32 0x43616E204E6F74207768696C65206C6F7474657279206F6E676F696E67000000 PUSH1 0x40 DUP3 ADD MSTORE PUSH1 0x60 ADD SWAP1 JUMP JUMPDEST PUSH4 0x4E487B71 PUSH1 0xE0 SHL PUSH1 0x0 MSTORE PUSH1 0x11 PUSH1 0x4 MSTORE PUSH1 0x24 PUSH1 0x0 REVERT JUMPDEST DUP1 DUP3 ADD DUP1 DUP3 GT ISZERO PUSH2 0x1AC4 JUMPI PUSH2 0x1AC4 PUSH2 0x1A9B JUMP JUMPDEST SWAP3 SWAP2 POP POP JUMP JUMPDEST PUSH1 0x0 PUSH1 0x1 DUP3 ADD PUSH2 0x1ADC JUMPI PUSH2 0x1ADC PUSH2 0x1A9B JUMP JUMPDEST POP PUSH1 0x1 ADD SWAP1 JUMP JUMPDEST PUSH4 0x4E487B71 PUSH1 0xE0 SHL PUSH1 0x0 MSTORE PUSH1 0x12 PUSH1 0x4 MSTORE PUSH1 0x24 PUSH1 0x0 REVERT JUMPDEST PUSH1 0x0 DUP3 PUSH2 0x1B08 JUMPI PUSH2 0x1B08 PUSH2 0x1AE3 JUMP JUMPDEST POP DIV SWAP1 JUMP JUMPDEST PUSH4 0x4E487B71 PUSH1 0xE0 SHL PUSH1 0x0 MSTORE PUSH1 0x41 PUSH1 0x4 MSTORE PUSH1 0x24 PUSH1 0x0 REVERT JUMPDEST DUP2 DUP2 SUB DUP2 DUP2 GT ISZERO PUSH2 0x1AC4 JUMPI PUSH2 0x1AC4 PUSH2 0x1A9B JUMP JUMPDEST PUSH1 0x0 DUP3 PUSH2 0x1B45 JUMPI PUSH2 0x1B45 PUSH2 0x1AE3 JUMP JUMPDEST POP MOD SWAP1 JUMP JUMPDEST PUSH4 0x4E487B71 PUSH1 0xE0 SHL PUSH1 0x0 MSTORE PUSH1 0x32 PUSH1 0x4 MSTORE PUSH1 0x24 PUSH1 0x0 REVERT JUMPDEST DUP1 DUP3 MUL DUP2 ISZERO DUP3 DUP3 DIV DUP5 EQ OR PUSH2 0x1AC4 JUMPI PUSH2 0x1AC4 PUSH2 0x1A9B JUMP JUMPDEST PUSH1 0x0 PUSH1 0xFF DUP3 AND PUSH1 0xFF DUP2 SUB PUSH2 0x1B8D JUMPI PUSH2 0x1B8D PUSH2 0x1A9B JUMP JUMPDEST PUSH1 0x1 ADD SWAP3 SWAP2 POP POP JUMP INVALID LOG2 PUSH5 0x6970667358 0x22 SLT KECCAK256 CALLDATALOAD 0x2A PUSH17 0x81B20503A3BFEDAB958D060D94B2EC80A4 SWAP5 0xB9 SWAP4 PUSH7 0x971E5A63542078 0xD PUSH5 0x736F6C6343 STOP ADDMOD GT STOP CALLER ",
    "sha1": "0c539c39d8c8d3ce4a78b5688722dcd084ff6297",
    "source": "pragma solidity ^0.8.13;\n\n//import \"@openzeppelin/contracts/token/ERC20/ERC20.sol\";\nimport \"@openzeppelin/contracts/access/Ownable.sol\";\nimport \"@openzeppelin/contracts/security/ReentrancyGuard.sol\";\n//import \"@chainlink/contracts/src/v0.8/interfaces/AggregatorV3Interface.sol\";\n//import \"@chainlink/contracts/src/v0.8/VRFConsumerBase.sol\";\nimport \"@openzeppelin/contracts/utils/Strings.sol\";\n\n//import \"@openzeppelin/contracts/utils/Address.sol\";\n\ninterface IERC20 {\n    function totalSupply() external view returns (uint256);\n\n    function balanceOf(address account) external view returns (uint256);\n\n    function transfer(address recipient, uint256 amount)\n        external\n        returns (bool);\n\n    function allowance(address owner, address spender)\n        external\n        view\n        returns (uint256);\n\n    function approve(address spender, uint256 amount) external returns (bool);\n\n    function transferFrom(\n        address sender,\n        address recipient,\n        uint256 amount\n    ) external returns (bool);\n\n    event Transfer(address indexed from, address indexed to, uint256 value);\n    event Approval(\n        address indexed owner,\n        address indexed spender,\n        uint256 value\n    );\n}\n\ncontract MyLottery is Ownable, ReentrancyGuard {\n    address payable[] public players;\n    address payable public recentWinner;\n    //address public link;\n    uint256 public randomness;\n    uint256 public minumumParticipants;\n    uint256 public maximumParticipants;\n    uint256 public EntryFee;\n    mapping(address => bool) public isUserEntered;\n    //AggregatorV3Interface internal ethUsdPriceFeed;\n    uint256 public pricePercent;\n    uint256 public ownerPercent;\n    uint256 public contractPercent;\n    uint256 public maxTryCounter;\n    uint256 public errorFlag;\n    uint256 public lotteryStart;\n    uint256 public lotteryEnd;\n    uint256 public lotteryDuration;\n    uint256 public lotteryPrepDuration;\n    bool public ownerSent;\n    //bool public winnerSent;\n\n    //timestamp ekliyip closeda required bilmem kac saat geçmeden bitemez\n\n    //maxTryCounter  end lottery icin calismali\n    //CALCULATING_WINNER da takilabilir\n    //lottery no id filan belki 1 le başlıyıp artırıp\n    // kazanan için emit event tutar filan\n    //hiç kimse katılmamışsa end lotterye gerek yok ilerde python schedule event lazım olucak\n\n    enum LOTTERY_STATE {\n        OPEN,\n        CLOSED,\n        CALCULATING_WINNER\n    }\n    LOTTERY_STATE public lottery_state;\n\n    enum EMERGENCY {\n        STOPPED,\n        NOT_STOPPED\n    }\n    EMERGENCY public emergency;\n    uint256 public fee;\n    bytes32 public keyhash;\n    event RequestedRandomness(bytes32 requestId);\n    //event ethSendError(address cannotEthSend);\n    event cantSendEthOwner(address indexed to, uint256 value);\n    event cantSendEthWinner(address indexed to, uint256 value);\n    event cantSendEthParticipants(address indexed to, uint256 value);\n\n    // 0\n    // 1\n    // 2\n\n    constructor() public {\n        EntryFee = 0.05 * (10**18); //bura deiscek\n        lottery_state = LOTTERY_STATE.CLOSED;\n        emergency = EMERGENCY.NOT_STOPPED;\n        minumumParticipants = 10;\n        maximumParticipants = 150;\n        pricePercent = 70;\n        ownerPercent = 20;\n        contractPercent = 10;\n        maxTryCounter = 3;\n        lotteryDuration = 259200; //28800 saniye 8 saat *3*3\n        lotteryPrepDuration = 14400; //7200 saniye 2 saat*2\n    }\n\n    /*nonReentrant*/\n    function enter_lottery() public payable nonReentrant {\n        require(isUserEntered[msg.sender] == false, \"Already entered\");\n        isUserEntered[msg.sender] = true;\n        require(lottery_state == LOTTERY_STATE.OPEN, \"Lottery Not started\");\n        require((emergency == EMERGENCY.NOT_STOPPED), \"Lottery Stopped\");\n        require(\n            msg.value == EntryFee,\n            string.concat(\n                \"Entry fee must be equal to: \",\n                Strings.toString(EntryFee),\n                \" Eth\"\n            )\n        );\n        require(\n            players.length <= maximumParticipants,\n            \"Maximum Number reached for  lottery\"\n        );\n        require((msg.sender).code.length <= 0, \"Contract cannot enter\");\n        players.push(payable(msg.sender));\n    }\n\n    function start_lottery() public nonReentrant {\n        require(\n            lottery_state == LOTTERY_STATE.CLOSED,\n            \"Lottery Already started\"\n        );\n        require(emergency == EMERGENCY.NOT_STOPPED, \"Lottery Stopped\");\n        require(\n            block.timestamp > (lotteryEnd + lotteryPrepDuration),\n            \"min lottery prep duration not passed\"\n        );\n        lottery_state = LOTTERY_STATE.OPEN;\n        randomness = 0;\n        lotteryStart = block.timestamp;\n    }\n\n    function end_lottery() public nonReentrant {\n        require(lottery_state == LOTTERY_STATE.OPEN, \"Lottery Not started\");\n        require(emergency == EMERGENCY.NOT_STOPPED, \"Lottery Stopped\");\n        require(\n            block.timestamp > (lotteryStart + lotteryDuration),\n            \"min lottery duration not passed\"\n        );\n        require((msg.sender).code.length <= 0, \"Contract cannot enter\");\n        //some\n        //timestamp requirede gerekiyor\n        if (players.length < minumumParticipants) {\n            not_enough_participant();\n        } else {\n            lottery_state = LOTTERY_STATE.CALCULATING_WINNER;\n            calculate_winner();\n        }\n\n        //ERC20 yeterli link var mı diye kontrol et\n    }\n\n    //if cant find winner something happens buna gerek kalmadi sanki\n    /*function retry_winner() public onlyOwner {\n        require(\n            lottery_state == LOTTERY_STATE.CALCULATING_WINNER,\n            \"wrong state\"\n        );\n        require(randomness == 0, \"not random\");\n        calculate_winner();\n    }*/\n\n    function calculate_winner() internal {\n        //if players.length>\n\n        //another random not very very random\n\n        randomness = uint256(\n            keccak256(\n                abi.encodePacked(\n                    players[0], //  seenable\n                    players[1],\n                    players[players.length - 1],\n                    block.difficulty, // can actually be manipulated by the miners!\n                    block.timestamp // timestamp is predictable\n                )\n            )\n        );\n        afterFinish();\n    }\n\n    function setPrizePercents(\n        uint256 _pricePercent,\n        uint256 _ownerPercent,\n        uint256 _contractPercent\n    ) external onlyOwner {\n        require(\n            lottery_state == LOTTERY_STATE.CLOSED,\n            \"Can Not while lottery ongoing\"\n        );\n        require(\n            _pricePercent + _ownerPercent + _contractPercent <= 100,\n            \"can not over 100\"\n        );\n        require(_pricePercent < 50, \"can not less 50\");\n        pricePercent = _pricePercent;\n        ownerPercent = _ownerPercent;\n        contractPercent = _contractPercent;\n    }\n\n    function setMinumumParticipants(uint256 _minumumParticipants)\n        external\n        onlyOwner\n    {\n        minumumParticipants = _minumumParticipants;\n    }\n\n    function setLotteryDuration(uint256 _duration) external onlyOwner {\n        lotteryDuration = _duration;\n    }\n\n    function setEmergencyOpen() external onlyOwner {\n        emergency = EMERGENCY.NOT_STOPPED;\n    }\n\n    function setEmergencyClose() external onlyOwner {\n        emergency = EMERGENCY.STOPPED;\n    }\n\n    function setEntranceFee(uint256 _entryFee) external onlyOwner {\n        require(\n            lottery_state == LOTTERY_STATE.CLOSED,\n            \"Can Not while lottery ongoing\"\n        );\n        EntryFee = _entryFee;\n    }\n\n    function setMaximumParticipants(uint256 _maximumParticipants)\n        external\n        onlyOwner\n    {\n        maximumParticipants = _maximumParticipants;\n    }\n\n    function getBalance(address _tokenContractAddress)\n        public\n        view\n        returns (uint256)\n    {\n        uint256 balance = IERC20(_tokenContractAddress).balanceOf(\n            address(this)\n        );\n        return balance;\n    }\n\n    function recoverEth() external onlyOwner {\n        require(\n            lottery_state == LOTTERY_STATE.CLOSED,\n            \"Can Not while lottery ongoing\"\n        );\n        payable(msg.sender).transfer(address(this).balance);\n    }\n\n    function recoverTokens(address tokenAddress) external onlyOwner {\n        IERC20 token = IERC20(tokenAddress);\n        token.transfer(msg.sender, token.balanceOf(address(this)));\n    }\n\n    function afterFinish() internal {\n        //mapping clear unutma\n        uint256 sentFlag = 0;\n        require(randomness != 0, \"cant find randomness\");\n        uint256 indexOfWinner = randomness % players.length;\n        recentWinner = players[indexOfWinner];\n\n        sentFlag = sendPrizes();\n\n        if (sentFlag == 0) {\n            clearPlayers();\n        } else {\n            errorFlag = errorFlag + 1;\n            if (errorFlag == 3) {\n                errorFlag = 0;\n                calculate_winner(); //yeni winner secicez\n            }\n        }\n\n        //require(sent, \"Failed to send Ether\");\n    }\n\n    function retrySendPrizes() external onlyOwner {\n        sendPrizes();\n    }\n\n    function sendPrizes() internal returns (uint256) {\n        require(\n            lottery_state == LOTTERY_STATE.CALCULATING_WINNER,\n            \" send prize wrong state\"\n        );\n        uint256 total_prize = address(this).balance;\n        if (\n            !ownerSent\n        ) //recentWinner.transfer(total_prize * (pricePercent / 100));\n        {\n            (bool sent, bytes memory data) = owner().call{\n                value: (total_prize * ownerPercent) / 100\n            }(\"\");\n            ownerSent = sent;\n            if (!ownerSent) {\n                emit cantSendEthOwner(\n                    owner(),\n                    (total_prize * ownerPercent) / 100\n                );\n                return 1;\n            }\n        }\n\n        (bool sent, bytes memory data) = recentWinner.call{\n            value: (total_prize * pricePercent) / 100\n        }(\"\");\n        if (!sent) {\n            emit cantSendEthWinner(\n                recentWinner,\n                (total_prize * pricePercent) / 100\n            );\n            return 1;\n        }\n        return 0;\n    }\n\n    /*function test(address sender)\n        external\n        returns (\n            uint256,\n            uint256,\n            uint256\n        )\n    {\n        uint256 total_prize = address(this).balance;\n        (bool sent, bytes memory data) = sender.call{\n            value: ((total_prize * pricePercent) / 100)\n        }(\"\");\n        require(sent, \"Failed to send Ether\");\n        uint256 calc_prize = total_prize * (pricePercent / 100);\n        return (calc_prize, total_prize, pricePercent);\n    }*/\n\n    function not_enough_participant() internal {\n        for (uint8 i = 0; i < players.length; i++) {\n            //players[i].transfer(EntryFee);\n            // burasi değişecek\n            (bool sent, bytes memory data) = players[i].call{value: EntryFee}(\n                \"\"\n            );\n            isUserEntered[players[i]] = false;\n            //require(sent, \"Failed to send Ether\");\n            if (!sent) {\n                emit cantSendEthParticipants(players[i], EntryFee);\n            }\n        }\n        clearPlayers();\n    }\n\n    function transferOwner(address newOwner) external onlyOwner {\n        transferOwnership(newOwner);\n    }\n\n    function clearPlayers() internal {\n        for (uint8 i = 0; i < players.length; i++) {\n            isUserEntered[players[i]] = false;\n        }\n        players = new address payable[](0);\n        lottery_state = LOTTERY_STATE.CLOSED;\n        errorFlag = 0;\n        ownerSent = false;\n        lotteryEnd = block.timestamp;\n        //randomness = 0;\n    }\n}\n",
    "sourcePath": "contracts/MyLottery.sol",
    "type": "contract",
    "deployment": {
        "address": "0x0C655acbC6e3a840dA49e99977065aeDf5bE341C",
        "chainid": "56",
        "blockHeight": 23896105
    }
}